:020000040000FA
:0600000065EF20F0120084
:020006001200E6
:0600080083EF1CF0120062
:02000E001200DE
:03001000000000ED
:0400130000000000E9
:0600180011EF1CF01200C4
:02001E000500DB
:100020005441000080000000280000001300000080
:10003000240F00000400000033410000A80000006D
:100040002100000013410000C90000002000000052
:0C00500010000000280F0000030000005A
:04005C00CEEC1AF0DC
:1000600048D8E66A120EE66E2DEC1BF0E552E5521A
:10007000E66A130EE66E2DEC1BF0E552E552260EF5
:10008000E66E240EE66E2DEC1BF0E552E552800E76
:10009000E66E2A0EE66E2DEC1BF0E552E552A90E37
:1000A000E66E2B0EE66E2DEC1BF0E552E552030ECC
:1000B000E66E2C0EE66E2DEC1BF0E552E552E80ED6
:1000C000E66E2D0EE66E2DEC1BF0E552E552400E6D
:1000D000E66E150EE66E2DEC1BF0E552E5523D0E78
:1000E000E66E110EE66E2DEC1BF0E552E552A3EF25
:1000F00000F0D9CFE6FFE1CFD9FFE652DF6A0F0E5D
:10010000E66E010EE66E2DEC1BF0E552E552320E66
:10011000E66EE66ADEEC15F0E552E5520001D151DB
:10012000FDE0D16B010EE66E42EC1BF0E552F350A0
:10013000100B04E0DF2A030EDF5CE9E3E552E55231
:10014000E7CFD9FF1200D9CFE6FFE1CFD9FFE652C2
:10015000140EE66E42EC1BF0E552F350DF6E030E18
:10016000DF14030809E0030EDF10E66E140EE66EDE
:100170002DEC1BF0E552E552E552E552E7CFD9FFF1
:100180001200030EE66E140EE66E20D8E552E5521C
:100190001200D9CFE6FFE1CFD9FFE652FE0EDBCF4A
:1001A000E6FF42EC1BF0E552F350DF6EFD0EDB5034
:1001B000DF10E66EFE0EDBCFE6FF2DEC1BF0E55206
:1001C000E552E552E552E7CFD9FF1200D9CFE6FF5D
:1001D000E1CFD9FFE652FE0EDBCFE6FF42EC1BF08B
:1001E000E552F350DF6EFD0EDB1CDF14E66EFE0EF3
:1001F000DBCFE6FF2DEC1BF0E552E552E552E55270
:10020000E7CFD9FF1200D9CFE6FFE1CFD9FFFB0E30
:10021000DBCFE6FFFC0EDBCFE6FFFD0EDBCFE6FF1C
:10022000FE0EDBCFE6FF260EE66E08D8146E050E36
:10023000E15E1450E552E7CFD9FF1200D9CFE6FFB7
:10024000E1CFD9FF020EE126D950FC0FE96EFF0E77
:10025000DA20EA6EEE50ED100BE0FA0EDBCFE9FF8C
:10026000FB0EDBCFEAFFEFCF14F0020E145C02E2CC
:10027000040E3FD0800EE66E0E0EE66EA7DFE5524E
:10028000E552070EDF6EE66AE66AD9CFE6FFDACFFF
:10029000E6FFFA0EDBCFE6FFFB0EDBCFE6FFFC0E40
:1002A000DBCFE6FFFD0EDBCFE6FF010EE66ED95099
:1002B000FE0FE66EFF0EDA20E66E27D8146E0B0EE8
:1002C000E15E1450E76E010EE7CFDBFFDB5003E089
:1002D000010EDB500ED0FA0EDBCFE9FFFB0EDBCFB9
:1002E000EAFFEF50020802E1DF5002E0010E01D008
:1002F000000E146E020EE15C02E2E16AE552E16E6C
:100300001450E552E7CFD9FF1200D9CFE6FFE1CF75
:10031000D9FFE652300EDF6EF40EDBCFE6FFF50EAE
:10032000DBCFE6FFF60EDBCFE6FFF70EDBCFE6FF17
:10033000F80EDBCFE6FFF90EDBCFE6FFFA0EDBCFE0
:10034000E6FFFB0EDBCFE6FFFC0EDBCFE6FFFD0E8C
:10035000DBCFE6FFFE0EDBCFE6FFDFCFE6FF0C0EC6
:10036000E66E09D8146E0D0EE15E1450E552E552AA
:10037000E7CFD9FF1200D9CFE6FFE1CFD9FF090EB1
:10038000E126D950F40FE96EFF0EDA20EA6EEE5046
:10039000ED1008E0F40EDBCFE9FFF50EDBCFEAFF4E
:1003A000EF5001D0000EDF6EF30EDB38F00BDF24D0
:1003B000E76E010EE7CFDBFF030EDB6AE66A010E94
:1003C000E66E2DEC1BF0E552E5527F0EE66E040E54
:1003D000E66E2DEC1BF0E552E552800EE66E0A0E3D
:1003E000E66E2DEC1BF0E552E552FB0EDBCFE6FF8F
:1003F000FC0EDBCFE6FFFA0EDBCFE6FF090EE66E62
:10040000E0EC1BF0E552E552E552E552010EDBCF80
:10041000E6FF0D0EE66E2DEC1BF0E552E552FE0EEA
:10042000DBCFE6FF010EE66E2DEC1BF0E552E55248
:10043000FE0EDB500C0807E1800EE66E0D0EE66E38
:10044000A8DEE552E552240EE66EE66ADEEC15F013
:10045000E552E552040EE66E42EC1BF0E552020E48
:10046000F3CFDBFFDBCF14F0156A166A176A14C0EE
:10047000E6FF15C0E6FF16C0E6FF17C0E6FF66EC14
:1004800017F0E552E552E552E552310EE66E3C0EAC
:10049000E66ECFEC16F0E552E552FD0EDBCFE6FF3F
:1004A000020EDB50E552E7141AE0250EE66E3C0E14
:1004B000E66ECFEC16F0E552E552010EF36E030E38
:1004C000F3CFDBFF0001D16B000EE66EE66ADEECD7
:1004D00015F0E552E552030EDB5006E103D0020EA3
:1004E000DBA0B8D7030E90D0060EE66E42EC1BF0F0
:1004F000E552040EF3CFDBFFDB50130B02E0010EDD
:1005000083D0050EDB6AD950F80FE96EFF0EDA20B2
:10051000EA6EEE50ED105EE0D950F60FE96EFF0E78
:10052000DA20EA6EEE50ED1055E00A0EE66E42EC6F
:100530001BF0E552020EF3CFDBFFDBCF14F0F60E1B
:10054000DBCFE9FFF70EDBCFEAFFEF50D880145482
:1005500002E2040E59D0F60EDBCFE9FFF70EDBCF37
:10056000EAFF020EDBCFEFFFF30EDBCFE6FFF80E64
:10057000DBCFE6FFF90EDBCFE6FF020EDBCFE6FFB7
:10058000090EE66E5AEC1BF0146E050EE15E145077
:100590000C0EE66E42EC1BF0E552F3CF14F0F4CFF4
:1005A00015F0070E1416000E1516050E14C0DBFF0D
:1005B000D950F40FE96EFF0EDA20EA6EEE50ED101E
:1005C00009E0F40EDBCFE9FFF50EDBCFEAFF050E05
:1005D000DBCFEFFF040EDBA602D0020E15D0D95000
:1005E000F80FE96EFF0EDA20EA6EEE50ED100BE028
:1005F000D950F60FE96EFF0EDA20EA6EEE50ED10DC
:1006000002E0F20EDB50000E146E090EE15C02E215
:10061000E16AE552E16E1450E552E7CFD9FF1200CE
:10062000D9CFE6FFE1CFD9FFE652E66A010EE66ECA
:100630002DEC1BF0E552E552040EE66E050EE66E5B
:100640002DEC1BF0E552E552800EE66E0A0EE66ECA
:100650002DEC1BF0E552E552FD0EDBCFE6FFFE0E62
:10066000DBCFE6FFFC0EDBCFE6FF090EE66E2DECDE
:100670001BF0E552E552E552E552030EE66E010E1F
:10068000E66E2DEC1BF0E552E552050EE66E42ECEF
:100690001BF0E552F350DF6EDFA4F7D7E66A010ED8
:1006A000E66E2DEC1BF0E552E552220EE66E42ECB2
:1006B0001BF0E552F350E66EFA0EDBCFE9FFFB0EBE
:1006C000DBCFEAFFE552E750EF6E210EE66E42EC1B
:1006D0001BF0E552F350E66E010EE76EFA0EDBCF2B
:1006E000E9FFFB0EDBCFEAFFE750E926000EEA2226
:1006F000E552E750EF6E000EE552E552E7CFD9FF25
:100700001200D9CFE6FFE1CFD9FF040EE126020E99
:10071000F36EDB6EE66A120EE66E2DEC1BF0E55210
:10072000E552E66A130EE66E2DEC1BF0E552E5523B
:10073000260EE66E240EE66E2DEC1BF0E552E55219
:10074000D950020FE66E000EDA20E66ED9CFE6FF32
:10075000DACFE6FF58DDE552E552E552E552E76EA5
:10076000030EE7CFDBFFDB5006E0030EDB50020891
:1007700002E0000E01D0010E146E040EE15C02E2F4
:10078000E16AE552E16E1450E552E7CFD9FF12005D
:10079000D9CFE6FFE1CFD9FFE652E66A0E0EE66E4C
:1007A0000F0EE66E0ED8E552E552E552DF6EDF50D1
:1007B00002E0000E01D0010EE552E552E7CFD9FF6D
:1007C0001200D9CFE6FFE1CFD9FF1D0EE126010EC1
:1007D000F36E030EF3CFDBFFFC0EDB50500802E29A
:1007E000060EC7D2800EE66E0E0EE66EEFDCE55208
:1007F000E552DF6ADF5001E0ADD2030EDB50030AA1
:1008000038E0010A18E0030A01E0F1D1930EF36E1B
:100810000A0EF3CFDBFF080EDB6AFC0EDB5021E093
:10082000FD0EDBCFE9FFFE0EDBCFEAFFEF50040841
:1008300018E2010E19D0950EF36E0A0EF3CFDBFF0E
:10084000030EF36E080EF3CFDBFFFC0EDB5009E066
:10085000FD0EDBCFE9FFFE0EDBCFEAFFEF5007080E
:1008600002E3000E01D0010EE76E020EE7CFDBFFC0
:100870000CD0970EF36E0A0EF3CFDBFF060EF36E6D
:10088000080EF3CFDBFF020EDB6AFC0EDBCFE6FFC8
:10089000080EDB50080DF350E552E75CE76E090ED9
:1008A000E7CFDBFF000EF36E090EDBCFF4FFF35052
:1008B000F45C02E2090EDB6A020EF36E070EF3CF60
:1008C000DBFF020EDB5012E0D9500A0F146EDACFB4
:1008D00015F0070EDBCFF3FFDB2AF3500F011424D2
:1008E000E96E000EDA20EA6E880EEF6E090EDB501C
:1008F000070B02E0010E01D0000E146E090EDB5052
:10090000F80BE842E842E8421424E76E190EE7CFFC
:10091000DBFFDB5052E0020EDB5002E0030E01D0A1
:10092000040EE76E1A0EE7CFDBFF190EDBCF14F0D3
:100930001A0EDB50D880145406E21A0EDB50E76E14
:10094000190EE7CFDBFF050EDB6A190EDB50F36EE5
:10095000050EDBCFF4FFF350F45C2FE2FD0EDBCF8E
:10096000E9FFFE0EDBCFEAFFEE52E9CF16F0EACF49
:1009700017F0050EDBCFE6FF080EDB50E552E7244B
:100980000F01E924E96E000EEA20EA6EEF50E66EF0
:10099000D9500A0F146EDACF15F0070EDBCFF3FF34
:1009A000DB2AF3501424E96E000EDA20EA6EE552D9
:1009B000E750EF6E050EDB2AC8D7020EDB500AE0C7
:1009C000080E146E090EDBCFE7FF1450E726090E60
:1009D000E7CFDBFF010EDB6A010EDB5001E062D1E5
:1009E000200EF36E090EDBCFF4FFF350F45C4CE302
:1009F000700EF36E0B0EF3CFDBFF0F0EDBCFE6FFB7
:100A00000E0EDBCFE6FF0D0EDBCFE6FF0C0EDB504C
:100A1000E552E718E552E718E552E718E76E100EC1
:100A2000E7CFDBFFD950110FE66E000EDA20E66E3D
:100A3000070EE66ED9500A0FE66E000EDA20E66E5B
:100A4000EFDD146E050EE15E1450E76E040EE7CF85
:100A5000DBFFDB5001E011D1150EDB6A090EF36EEE
:100A6000130EF3CFDBFFD950100F146EDACF15F051
:100A7000160E14C0DBFF170EDACFDBFF030EF36E8A
:100A8000180EF3CFDBFF51D0090EDB50070BE76EDA
:100A9000150EE7CFDBFF090EDB50F80BE842E8420A
:100AA000E842E76E050EE7CFDBFFDB50020FE76E93
:100AB000070EE7CFDBFF150EDBCFE6FF070EDB38B7
:100AC000F00BE552E724E76E0B0EE7CFDBFF070ED6
:100AD000DBCFE6FF150EDB5002E0010E01D0000E69
:100AE000E552E724E76E130EE7CFDBFFD9500A0F7C
:100AF000166EDACF17F0070EDB5000011624146EC5
:100B0000000EDA20156E160E14C0DBFF170E15C08E
:100B1000DBFF070EDB50146E156A090ED8801456E1
:100B2000000E1556180E14C0DBFF150EDB50E76ED5
:100B3000140EE7CFDBFF150EDBCFE6FF140EDB381C
:100B4000F00BE552E724E66E0D0EE66E2DEC1BF081
:100B5000E552E552E66A140EDBCFE6FFD950150FD9
:100B6000E66E000EDA20E66ED950180FE66E000E23
:100B7000DA20E66E160EDBCFE6FF170EDBCFE6FFC0
:100B8000130EDBCFE6FFD9500A0FE66E000EDA2017
:100B9000E66E85EC01F0146E0B0EE15E1450E76E0C
:100BA000040EE7CFDBFFDB50020864E10E0EE66EB9
:100BB00042EC1BF0E5521B0EF3CFDBFFDBAA02D0A9
:100BC000020ED7D0DB501F0BE76E1C0EE7CFDBFF0A
:100BD000DB5005E1200EF36E1C0EF3CFDBFF1C0E85
:100BE000DBCF14F0090EDB50D880145402E3050E5D
:100BF000C0D01C0EDB50E76E090EE7CFDBFFDB50E9
:100C0000070BE76E050EE7CFDBFF090EDB04070BD2
:100C1000E76E060EE7CFDBFF050EDB5002E0010EAC
:100C200001D0000E146E090EDB50F80BE842E842CA
:100C3000E842010F1424E76E070EE7CFDBFF010E39
:100C4000F36E060EDB5004E0D890F336E806FCE1C4
:100C5000F350166ED9500A0F146EDACF15F0070E46
:100C6000DB500F011424E96E000EDA20EA6EF35017
:100C7000EF12B2D6040EDB5003E0040EDB5079D045
:100C8000200EF36E090EDBCFF4FFF350F45C04E3A7
:100C9000DE52010EDD6EA0D6200EF36E090EF3CFEC
:100CA000DBFF9AD60C0EDB50880802E1030E01D060
:100CB000020EE76E070EE7CFDBFF0C0EDB50880855
:100CC00002E1030E01D0040EE76E190EE7CFDBFF41
:100CD000050EDB6A190EDB50F36E050EDBCFF4FF59
:100CE000F350F45C2DE2D9500A0F166EDACF17F0EC
:100CF000070EDBCFF3FFDB2AF3500F011624E96E5A
:100D0000000EDA20EA6EEF50E66EFD0EDBCFE9FF53
:100D1000FE0EDBCFEAFFEE52EACF15F0050EDBCF79
:100D2000E6FF080EDB50E552E724E924E96E000EE9
:100D3000EA20EA6EE552E750EF6E050EDB2ACAD7CD
:100D4000180EDB50030804E1150EDB5001E152D50B
:100D5000010E0FD0030EDB50030DF328E66EFD0EDF
:100D6000DBCFE9FFFE0EDBCFEAFFE552E750EF6E87
:100D7000000E146E1D0EE15C02E2E16AE552E16EC6
:100D80001450E552E7CFD9FF1200D9CFE6FFE1CFEB
:100D9000D9FFE652370EE66E42EC1BF0E552F350F7
:100DA000DF6E0F0EE66E3C0EE66ECFEC16F0E552EF
:100DB000E552DFCF14F0156A166A176A14C0E6FF11
:100DC00015C0E6FF16C0E6FF17C0E6FF66EC17F099
:100DD000E552E552E552E552DF50120A18E0800A6A
:100DE00012E0030A0CE0010A06E0180A14E1040EFE
:100DF000E66E3C0E13D0FC0EE66E3B0E0FD0F40EEA
:100E0000E66E3B0E0BD0EC0EE66E3B0E07D0D80E16
:100E1000E66E3B0E03D0CB0EE66E3B0EE66ECFECDD
:100E200016F0E552E552DF5003E0FF0EDF5C08E10B
:100E3000880EE66E3B0EE66ECFEC16F0E552E552FC
:100E4000E552E552E7CFD9FF1200D9CFE6FFE1CF57
:100E5000D9FF080EE126FD0EDBCFE9FFFE0EDBCF4A
:100E6000EAFF0B0EE926000EEA22EF50E66EC7D825
:100E7000E552E76E070EE7CFDBFFDB503CE0FF0AF1
:100E80003AE0FE0A30E0090A2EE00A0A2CE0050AE0
:100E90002AE00E0A28E00F0A22E0050A04E0070A09
:100EA00002E0010A28E1060EDB6AF36EDBCFF4FFF5
:100EB000E850F45C10E2D9CF14F0DACF15F0060E4A
:100EC000DB500F01D924E96E000EDA20EA6EEF68DC
:100ED000060EDB2AEAD7740EE66E3B0E07D0600ED4
:100EE000E66E3B0E03D0240EE66E3B0EE66ECFECB4
:100EF00016F0E552E552080EE15C02E2E16AE552C5
:100F0000E16EE552E7CFD9FF1200D9CFE6FFE1CF7E
:100F1000D9FFE652D950FC0FE96EFF0EDA20EA6ED7
:100F2000EE50ED100BE0FA0EDBCFE9FFFB0EDBCF4E
:100F3000EAFFEFCF14F0120E145C02E2040E5AD056
:100F4000FC0EDBCFE9FFFD0EDBCFEAFF300EEF6ECC
:100F5000010EE76EFC0EDBCFE9FFFD0EDBCFEAFFF3
:100F6000E750E926000EEA22FE0EDBCFEFFF020E6D
:100F7000E76EFC0EDBCF14F0FD0EDBCF15F0E75073
:100F80001426000E152214C0E6FF15C0E6FF020E5F
:100F9000E66EFC0EDBCFE6FFFD0EDBCFE6FF10ECCE
:100FA00003F0166E050EE15E1650DF6EDF5002E0B4
:100FB000DF5020D0010EE66EE66A000EE66EE66AAD
:100FC000FA0EDBCFE6FFFB0EDBCFE6FFFC0EDBCF3E
:100FD000E6FFFD0EDBCFE6FF040EE66EFC0EDBCF78
:100FE000E6FFFD0EDBCFE6FF85EC01F0146E0B0E85
:100FF000E15E1450E552E552E7CFD9FF1200D9CF98
:10100000E6FFE1CFD9FFFE0EDB9EDB50400A22E077
:10101000600A1EE0210A1AE0110A16E0010A14E033
:10102000110A10E0180A0CE0100A08E0010A04E0B6
:101030000D0A12E1FF0E11D0030E0FD0040E0DD0D9
:10104000050E0BD0060E09D0070E07D0090E05D0ED
:10105000010E03D0020E01D0000EE552E7CFD9FFFA
:101060001200D9CFE6FFE1CFD9FFFB0EDBCFE6FFC1
:10107000FC0EDBCFE6FFFD0EDBCFE6FFFE0EDBCF87
:10108000E6FF520EE66E1EEC01F0146E050EE15EF8
:0A1090001450E552E7CFD9FF12001B
:06109A0089EC0DF0FB0ED5
:1010A000DBCFF3FFDB06F35000090AE0D7EC0DF0CD
:1010B000FA0E42EC0EF0F3E1151CF1E1010E01D045
:1010C000000EB8EF0DF089EC0DF03B0EE12402E3C9
:1010D000E168E652E16E010EDB6A020EDB6AF90E90
:1010E000DBCFF6FFFA0EDBCFF7FFFB0EDBCFF8FF0F
:1010F0000800F550DF6EDF5002E1DCEF0CF0250E4A
:10110000DF5C02E0CFEF0CF0030EDB6A040EDB6A5B
:10111000050EDB6A060EDB6A070EDB6AF1EC0CF0EB
:101120002D0EDF5C0CE02B0EDF5C09E0200EDF5C97
:1011300006E0230EDF5C03E0300EDF5C1AE1DF50D7
:10114000300A14E0130A0FE0030A0AE00B0A05E074
:10115000060AE4E1030EDB80E1D7030EDB82DED773
:10116000030EDB84DBD7030EDB86D8D7030EDB88C8
:10117000D5D72A0EDF5C1BE1EDEC0CF03BEC0DF05B
:1011800010E0030EDB8008680968130EDBCF0DF05A
:10119000140EDBCF0EF06DEC1EF0040E06C0DBFF6C
:1011A00003D0130E24EC0DF0F1EC0CF00BD0090E73
:1011B000DB6A92EC0DF003E006EC0EF0FAD7090EB4
:1011C00024EC0DF0030EDBB0DB982E0EDF5C1BE190
:1011D000F1EC0CF02A0EDF5C0BE1EDEC0CF03BECDB
:1011E0000DF003E1130E76EC0DF0F1EC0CF00BD0EA
:1011F000090EDB6A92EC0DF003E006EC0EF0FAD774
:10120000090E76EC0DF0680EDF5C07E1F1EC0CF0F6
:10121000680EDF5C1DE1030E18D0740EDF5C17E072
:101220007A0EDF5C14E0480EDF5C06E0540EDF5CF3
:1012300003E05A0EDF5C02E1020E07D06C0EDF5CA9
:1012400003E06A0EDF5C04E1010EC9EC0DF0C9DBBE
:10125000DF506E0A01E17FD31E0A01E192D1200A1C
:1012600001E18FD13F0A01E149D11A0A01E146D1DA
:101270000D0A01E143D1200A01E140D13A0A01E11E
:101280003DD1200A01E13AD1260A01E135D10D0A0A
:1012900001E132D11A0A01E1D9D0200A4AE0300A2C
:1012A0001FE0460A0EE0250A01E083D3D950F90F6A
:1012B000E96EFF0EDA20EA6E010EEE5E000EEE5AC7
:1012C000EE5AD7EC0DF0250EE66E95DB03E1151C0A
:1012D00001E169D3D3EC0DF001E26BD3DB2A69D3D2
:1012E000080EDB6A040EDB50010806E2040EDB0484
:1012F0009BEC0DF0DB508BDB080EDB5009E0030E9E
:10130000DB50010B05E172DB01E04DD3080EDB6A17
:1013100064DBEFCFDFFF4BEC0EF003E1151C01E1C6
:1013200042D3D3EC0DF001E3DB2A60DB01E141D3D2
:101330003AD3070EDB5002080FE117EC0EF0030E54
:10134000DEEC0DF00E0EEECFDBFF0F0EEECFDBFF6F
:10135000100EEECFDBFF20D0F70EDBCF17F0F80E2C
:10136000DBCF18F0020E175E000E185AF70E17C0EA
:10137000DBFFF80E18C0DBFF17C0E9FF18C0EAFF5B
:10138000CEEC0DF0166A0E0E14C0DBFF0F0E15C06A
:10139000DBFF100E16C0DBFF0E0EDBCFE6FF0F0EDD
:1013A000DBCFE6FF100EDBCFE6FFC7EC1FF0E55208
:1013B000E552E552130E07C0DBFF140E08C0DBFF39
:1013C000060EDB5005E0130E12EC0EF001E26ADBB4
:1013D00036EC0EF002E2130E37DBF9EC0DF006E00E
:1013E000040E12EC0EF002E2050E2EDB030EDBB053
:1013F00005D0FCDA01E0D7D2080EDB6A090EDB6A01
:101400000E0EDBCFF6FF0F0EDBCFF7FF100EDBCF9C
:10141000F8FF0800F550DF6EDF5014E03CEC0EF0F2
:1014200011E24BEC0EF003E1151C01E1BCD2BBDB79
:1014300001E3DB2A090EDB2AD9500E0FE96E000EFC
:10144000CBDBE7D7D3DA01E1B4D2ADD2C6DA110EE5
:10145000EECFDBFF120EEDCFDBFF110EDBCFE6FF91
:10146000120EDBCFE6FFB9EC1FF0E552E552130E8A
:10147000F3CFDBFF140EF4CFDBFF060EDB5004E0EE
:10148000130ED0DB01E20EDB36EC0EF002E2130E9F
:10149000DBDAAFDB05E0040EC5DB02E2050ED4DAD1
:1014A000030EDBB005D0A2DA01E07DD2080EDB6AC4
:1014B000090EDB6A110EDBCFE9FF120EDBCFEAFF6C
:1014C000EFCFDFFFDF5014E0D7DB12E2E4DB03E114
:1014D000151C01E168D267DB01E3DB2A090EDB2A78
:1014E000110EDB2ADBCFE9FF120EE8E3DB2AE6D799
:1014F0007DDA01E15ED257D2030EDB8E070EDB04EC
:1015000010E195DB040E5ADB0A0EEECFDBFF0B0E6B
:10151000EECFDBFF0C0EEECFDBFF0D0EEECFDBFFD1
:101520006CD0070EDB5003082CE1030EDBAE0DD0B0
:10153000B2DA020E76DAEFCF14F0156A166A176A7D
:1015400014AE39D01568166835D0F70EDBCF15F01C
:10155000F80EDBCF16F0020E155E000E165AF70ECF
:1015600015C0DBFFF80E16C0DBFF15C0E9FF16C083
:10157000EAFFEFCF14F00A0E14C0DBFF0B0EDB6A9C
:1015800038D0070EDB50020809E1030EDBAE04D0B1
:1015900059DB16AE10D00ED055DB0DD0030EDBAEEE
:1015A00012D079DA020E3DDAF9DA166A176A15AE48
:1015B00002D016681768E2DA0C0E16C0DBFF0D0EBB
:1015C00017C0DBFF1AD0F70EDBCF16F0F80EDBCF1B
:1015D00017F0020E165E000E175AF70E16C0DBFF4C
:1015E000F80E17C0DBFF16C0E9FF17C0EAFFD6DA16
:1015F000C5DA0C0EDB6A0D0EDB6A060EDB5005E168
:10160000010EF36E050EF3CFDBFF150EDB6A160E2F
:10161000DB6AD950370F146E000EDA20156E390EC2
:1016200014C0DBFF3A0E15C0DBFF380EDB6A080E74
:10163000DB6A0A0EAEDADF50780A12E0200A10E008
:10164000280A0CE0200A0AE03F0A06E00D0A02E040
:10165000200A08E1020E05D0080E03D0080EDF268E
:10166000100E97DA030EDBBE02D0DB92DB94DB5068
:10167000800B24E08ADAD890030EEB50000A08E6CB
:10168000000EEE5C000EEE58000EEE58000EEE5806
:1016900015E213DA0B680C680D680E6881EC1FF018
:1016A0000A0E02C0DBFF0B0E03C0DBFF0C0E04C0F2
:1016B000DBFF0D0E05C0DBFF2D0E08D0030EDBA2F5
:1016C00002D02B0E03D0DBA408D0200EF36E170E31
:1016D000F3CFDBFF150EDB2A02D0170EDB6A050EF7
:1016E000DB5003E1B7D901E189D0020E146E410E3F
:1016F000156E000E166E070EDBCF17F0186A196A0A
:101700001A6A17C00BF018C00CF019C00DF01AC0FF
:101710000EF0D3D9ECEC1FF014500224F36E1550E8
:101720000320F46E16500420F86EF4CFF7FFF3CFC9
:10173000F6FF0800090EF5CFDBFF580EDF5C0FE166
:10174000610EF36E090E7BD90AE3200E146E090EAA
:10175000DBCFE7FF1450E75E090EE7CFDBFF070E94
:10176000DBCF14F0156A166A176A0FDA14C00BF093
:1017700015C00CF016C00DF017C00EF0EECF06F03D
:10178000EECF07F0EECF08F0EFCF09F0ECEC1FF052
:1017900009C0EDFF08C0EDFF07C0EDFF06C0EFFF79
:1017A000390EDBCFE9FFDB063A0EDBCFEAFF01E2C1
:1017B000DB06090EDBCFEFFF150EDB2A4BD995E1D7
:1017C000030EDBA61DD06F0EDF5C06E1C1D918E366
:1017D000150EDB285BDA14D0780EDF5C09E0580EBA
:1017E000DF5C06E0620EDF5C03E0420EDF5C08E1D6
:1017F000020EF36E160EF3CFDBFF02D0150EDB6A7E
:10180000030EDB50100B0EE0040EDBCF14F0050EC0
:10181000DB50D880145406E2060EDB5003E1040EC0
:10182000DB5034DA95D90AE2050EDBCFE7FF150E5F
:10183000DB50E75E050EE7CFDBFF02D0050EDB6A6B
:10184000040EDBCF14F0160E45D9D880145414E2E0
:10185000160EDBCFE6FF150EDBCFE6FF040EDBCF67
:10186000E6FF050EDB50E552E75CE552D880E75411
:10187000E552D880E7545FD9030EDB50010B0BE132
:10188000080EDB5008E0B2D801E08DD0080EDB5026
:10189000BED8080EDB6A170EDB5007E088D9170E9A
:1018A000F1D903E1151C01E17ED0160EDB5016E0E4
:1018B0007ED9300EE66E9FD802E1151C74E077D910
:1018C000DFCFE6FF3FEC1FF0E552E552E552F4CFE3
:1018D00015F00001F31C02E1151C65E0050EDBCFDD
:1018E00014F0160EDB50D880145409E2050EDBCF3D
:1018F000E7FF160EDB50E75E050EE7CFDBFF300E8D
:10190000E66E050ECBD94FE1390EDB2ADBCFE9FFBE
:101910003A0E01E3DB2ADBCFEAFF090EEFCFDBFF54
:10192000DB500EE044D9090EADD902E1151C3BE0B5
:10193000390EDB2ADBCFE9FF3A0EEDE3DB2AEBD7EA
:1019400055D831E1160EDBCFE6FF080EC3D8E552BD
:10195000E7245DD82ED0070EDB50030A1CE0010AF5
:1019600014E0030A07E07BD9DBCFEEFF020EDBCFEA
:10197000EDFF1FD0F5D8196A17AE02D018681968A4
:101980002CD8BCD819C0EEFF14D0EAD817BE1868FE
:1019900024D8B4D80ED063D9DBCFEFFF0AD07BD9DF
:1019A00005E1151C03E1F368F46810D0FCD801E3ED
:1019B000DB2A79D978EF08F0010EDBCF14F0020EA4
:1019C000DBCF15F014C0F3FF15C0F4FF3B0EE15C54
:1019D00002E2E16AE552E16ECBD029D9020EDEEFD8
:1019E0000DF061D90800F550DF6E1200200EE66E92
:1019F000080E4EEF0EF03FEC1FF0E552E552E552B7
:101A0000F3CF14F0F4CF15F00001F31C1200146EA4
:101A1000156AD950010F4DD91450EE261550ED22FC
:101A20001200185E000E195AF70E18C0DBFFF80EF0
:101A300019C0DBFF18C0E9FF19C0EAFF1200DBCFB5
:101A4000F4FFF350F45C1200DB50E76E040EE7CFB6
:101A5000DBFF12000A0EDBCF14F00B0EDBCF15F00C
:101A60000C0EDBCF16F00D0EDBCF17F01450151057
:101A7000161017101200130EEECFDBFF140EEDCF71
:101A8000DBFF130EDBCF14F0140EDBCF15F00001DB
:101A9000800E15141200F70EDBCF18F0F80EDBCF16
:101AA00019F01200050EDB50E66ED950130F01D964
:101AB000E552E750EE6EED6A12000A0EDBCF06F03B
:101AC0000B0EDBCF07F00C0EDBCF08F00D0EDBCFDB
:101AD00009F01200DBCFE6FF150EDBCFE6FF050EA7
:101AE000DB50E552E724E552E7241200DB50CED864
:101AF000010EF36E060EF3CFDBFF1200EE50EFCFB8
:101B0000EAFFE96E16C0EEFF17C0EEFF18C0EEFF49
:101B10001200D9CFE6FFDACFE6FFE1CFD9FFE2CF5F
:101B2000DAFF1200DFCFE6FFE66A43EC20F0E55271
:101B3000E552F3501200E76E080EE7CFDBFF12000C
:101B4000EECF14F0EECF15F0EFCF16F0176A1200BB
:101B5000050EDBCF14F0150EDB50D88014541200A4
:101B6000010EDBCF16F0020EDBCF17F0186A120061
:101B7000E552E5CFDAFFE7CFD9FF12000A0E14C015
:101B8000DBFF0B0E15C0DBFF1200D9500A0F59EF17
:101B90000EF0F36E070EF3CFDBFF1200EECF14F062
:101BA000EFCF15F01200010EDB2A020E1200FC0E20
:101BB000DBCFE6FFFD0EDBCFE6FF1200145E000E6A
:101BC000155AF70E14C0DBFFF80E15C0DBFF14C06A
:101BD000E9FF15C0EAFF1200DA20EA6EEF2AEECF25
:101BE000F6FF000EEF22EECFF7FFEF22EECFF8FF69
:101BF0001200040EDBCFE6FF130EDB50E552E75C6C
:101C00009ADFDB5004DF060EDB501200090EDB50BA
:101C10000A0DF350DF24D00FE76E090EE7CFDBFF8C
:101C2000F1EF0CF0DB50F36E050E1FEF0DF0F70E29
:101C3000DBCF14F0F80EDBCF15F01200DFCFE6FF9C
:101C4000FBEF0CF028DF030EECDEA0EF0DF04DEC07
:101C500008F0E552E552E552E55200091200BDDEFA
:101C6000EE50EFCFEAFFE96E010E1200130EDB50CB
:101C7000F36E040E1FEF0DF0040EDB50F36E090E31
:101C80001FEF0DF0DBCFE6FFFBEF0CF0E76E050E6C
:101C9000E7CFDBFF12008BDF1EEF0EF0DBCFE6FF9E
:101CA00086DF27EF0EF0D950F90FE96EFF0EECEF4B
:0C1CB0000DF0E96E000EDA20EA6E120062
:041CBC00D9CFE6FF97
:101CC000E1CFD9FF040EE126DE6ADD6ADECF14F033
:101CD000DDCF15F0FE0EDB50000115AE02D0D8901E
:101CE00003D0145C000E15581DE2020EDB6A030ED1
:101CF000DB6A020EDBCF14F0030EDBCF15F0D890B9
:101D0000155004E6010E145C000E155806E2020E92
:101D1000DB2A030EEEE3DB2AECD7DF2A010ED6E343
:101D2000DB2AD4D7040EE15C02E2E16AE552E16EFF
:101D3000E552E7CFD9FF1200D9CFE6FFE1CFD9FFB7
:101D4000040EE126DE6ADD6ADECF14F0DDCF15F089
:101D5000166A176A15AE02D016681768D950FB0FBD
:101D6000E96EFF0EDA20EA6EEE50145CEE50155864
:101D7000EE501658EE5017581DE2020EDB6A030EA5
:101D8000DB6A020EDBCF14F0030EDBCF15F0D89028
:101D9000155004E6A00E145C000E155806E2020E63
:101DA000DB2A030EEEE3DB2AECD7DF2A010ECCE3BD
:101DB000DB2ACAD7040EE15C02E2E16AE552E16E79
:101DC000E552E7CFD9FF1200D9CFE6FFE1CFD9FF27
:101DD0000F0E8116FE0EDB50F00B81128186010E74
:101DE000E66EE66AE66AE66AA7DFE552E552E55284
:101DF000E5528196010EE66EE66AE66AE66A9CDFC7
:101E0000E552E552E552E5520F0E8116FE0EDB3823
:101E1000F00B81128186010EE66EE66AE66AE66ADA
:101E20008BDFE552E552E552E5528196010EE66EF2
:101E3000E66AE66AE66A80DFE552E552E552E55277
:101E4000E552E7CFD9FF1200D9CFE6FFE1CFD9FFA6
:101E5000E652030E9316190EE66EE66AE66AE66A25
:101E60006BDFE552E552E552E5520F0E8116F80E92
:101E700081160F0E8116300E81128186010EE66EDC
:101E8000E66AE66AE66A58DFE552E552E552E5524F
:101E90008196010EE66EE66AE66AE66A4DDFE55275
:101EA000E552E552E5520F0E8116300E8112818601
:101EB000010EE66EE66AE66AE66A3EDFE552E55244
:101EC000E552E5528196010EE66EE66AE66AE66A3A
:101ED00033DFE552E552E552E5520F0E8116300E22
:101EE00081128186010EE66EE66AE66AE66A24DF02
:101EF000E552E552E552E5528196010EE66EE66A3C
:101F0000E66AE66A19DFE552E552E552E5520F0E40
:101F10008116818A8186010EE66EE66AE66AE66AC5
:101F20000BDFE552E552E552E5528196010EE66E71
:101F3000E66AE66AE66A00DFE552E552E552E552F6
:101F4000280EE66E41DFE5520C0EE66E3DDFE552EF
:101F5000E552E552E7CFD9FF1200D9CFE6FFE1CF36
:101F6000D9FF0F0E8116FE0EDB5081128186010E05
:101F7000E66EA4DEE5528196010EE66E9FDEE55226
:101F8000E552E7CFD9FF1200D9CFE6FFE1CFD9FF65
:101F90008194010EE66E92DEE552FE0EDBCFE6FF87
:101FA000DCDFE552FE0EDB38F00BE66ED6DFE552E5
:101FB000E552E7CFD9FF1200D9CFE6FFE1CFD9FF35
:101FC0008184010EE66E7ADEE552FE0EDBCFE6FF7F
:101FD000C4DFE552FE0EDB38F00BE66EBEDFE552E5
:101FE0008194E552E7CFD9FF1200D9CFE6FFE1CFC8
:101FF000D9FFFE0EDBCFE6FFDFDFE552E552E7CF8C
:10200000D9FF1200D9CFE6FFE1CFD9FFFD0EDBCF1C
:10201000F6FFFE0EDBCFF7FF0800F5500FE0FD0ED8
:10202000DBCFF6FFDB2AFE0EDBCFF7FF01E3DB2A77
:102030000800F550E66ED9DFE552E8D7E552E7CF64
:10204000D9FF1200D9CFE6FFE1CFD9FF050EE12677
:10205000010EF36EDB6E020EDB6A030EDB6A040E0A
:10206000DB6ADF6ADFCF14F0156A14BE1568FB0E59
:10207000DBCF16F0FC0EDBCF17F015501718E8AECB
:1020800002D0173404D01650145C175015582DE2A6
:10209000FD0EDBCF14F0FE0EDBCF15F0166A176ACB
:1020A00015AE02D016681768D950010FE96EDACF65
:1020B000EAFF14C00BF015C00CF016C00DF017C0ED
:1020C0000EF0EECF06F0EECF07F0EECF08F0EFCF38
:1020D00009F081EC1FF005C0EDFF04C0EDFF03C067
:1020E000EDFF02C0EFFFDF2ABDD7010EDBCF14F0FA
:1020F000020EDBCF15F0030EDBCF16F0040EDBCFA4
:1021000017F014C006F015C007F016C008F017C08D
:1021100009F0050EE15C02E2E16AE552E16EE5528A
:10212000E7CFD9FF1200D9CFE6FFE1CFD9FF020EEA
:10213000E126DF6AFB0EDBCF14F0FC0EDBCF15F0DF
:10214000FD0EDBCF16F0FE0EDBCF17F0145015108E
:102150001610171005E1300EE66E47DFE552F4D099
:10216000D950FB0FE96EFF0EDA20EA6ED890030E0D
:10217000EB50000A08E6000EEE5C000EEE58000E72
:10218000EE58000EEE5815E22D0EE66E2EDFE552EB
:10219000D950FB0FE96EFF0EDA20EA6E000EEE6CEE
:1021A000EF1EEE22EF1EEE22EF1EEF22ED52ED5259
:1021B000ED52DE520A0EDD6E010EDBCF14F0000E82
:1021C000E76E1418E8AE02D0143403D0E750D8807C
:1021D000145401E3B9D0010EDB04186E196A18BE5D
:1021E000196818C0E6FF19C0E6FF0A0EE66EE66A37
:1021F00029DFE552E552E552E55206C014F007C06A
:1022000015F008C016F009C017F006C00BF007C0A3
:102210000CF008C00DF009C00EF0FB0EDBCF06F08D
:10222000FC0EDBCF07F0FD0EDBCF08F0FE0EDBCFA0
:1022300009F0ECEC1FF0065007100810091041E0FF
:10224000010EDF6EDB041C6E1D6A1CBE1D681CC007
:10225000E6FF1DC0E6FF0A0EE66EE66AF3DEE55213
:10226000E552E552E55206C018F007C019F008C063
:102270001AF009C01BF006C00BF007C00CF008C034
:102280000DF009C00EF0FB0EDBCF06F0FC0EDBCF2D
:1022900007F0FD0EDBCF08F0FE0EDBCF09F0ECEC13
:1022A0001FF006C014F007C015F008C016F009C0F2
:1022B00017F0300E1426000E152216221722145085
:1022C00003D0DF5004E0300EE66E8FDEE552010EE3
:1022D000DB04186E196A18BE196818C0E6FF19C029
:1022E000E6FF0A0EE66EE66AADDEE552E552E5521D
:1022F000E55206C014F007C015F008C016F009C07A
:1023000017F0D950FB0FE96EFF0EDA20EA6E06C017
:102310000BF007C00CF008C00DF009C00EF0EECFB6
:1023200006F0EECF07F0EECF08F0EFCF09F0ECECBF
:102330001FF005C0EDFF04C0EDFF03C0EDFF02C0BC
:10234000EFFF010EDB0638D7020EE15C02E2E16A24
:10235000E552E16EE552E7CFD9FF1200D9CFE6FF93
:10236000E1CFD9FFE652FE0EDB50010A04E0010A7C
:1023700004E1800E01D0C00EDF6EFD0EDB50DF24C5
:10238000DF6EDFCFE6FF00DEE552E552E552E7CF34
:10239000D9FF1200010EE66EF7DDE552E66AE66A45
:1023A000DDDFE552E5521200D9CFE6FFE1CFD9FFDC
:1023B000FD0EDBCFE6FFFE0EDBCFE6FFCFDFE55203
:1023C000E552D950F90FE96EFF0EDA20EA6EEECF32
:1023D000E6FFEECFE6FFEECFE6FFEFCFE6FFA3DEB0
:1023E000E552E552E552E552E552E7CFD9FF12003A
:1023F000D9CFE6FFE1CFD9FFFD0EDBCFE6FFFE0E22
:10240000DBCFE6FFABDFE552E552FB0EDBCFE6FFAD
:10241000FC0EDBCFE6FFF6DDE552E552E552E7CFF5
:10242000D9FF1200D9CFE6FFE1CFD9FFFAC014F0EF
:10243000FBC015F0040ED89014361536E806FBE103
:10244000A90E1426000E152214500001FC25E96E79
:102450001550FD21EA6EFE0EDBCFEFFFFC2B000EC8
:10246000FD23E552E7CFD9FF1200D9CFE6FFE1CF38
:10247000D9FFFE0EDB50010B0001FA6FFB6BFD0E66
:10248000DB500F0BFC6FFD6BFB0EDBCFE9FFFC0E8F
:10249000DBCFEAFFEF500EE0FB0EDBCFE9FFDB2ADC
:1024A000FC0EDBCFEAFF01E3DB2AEF50E66EBADF7A
:1024B000E552EAD7E552E7CFD9FF1200D9CFE6FFC0
:1024C000E1CFD9FFE652DF6ADFCF14F0100EE76EDE
:1024D0001418E8AE02D0E73402D0E750145C18E2DA
:1024E000DFCFE9FFEA6AE9BEEA68A90EE926000E35
:1024F000EA22200EEF6EDFCFE9FFEA6AE9BEEA6862
:10250000B90EE926000EEA22200EEF6EDF2ADCD794
:10251000E552E552E7CFD9FF1200D9CFE6FFE1CF70
:10252000D9FFE652E66AE66A19DFE552E552DF6A4C
:10253000100EDF5C0CE2DF50EA6AA90FE96E000EB4
:10254000EA22EF50E66E51DDE552DF2AF1D7E66A66
:10255000010EE66E03DFE552E552DF6A100EDF5C26
:102560000CE2DF50EA6AB90FE96E000EEA22EF5082
:10257000E66E3BDDE552DF2AF1D7E552E552E7CFC3
:10258000D9FF1200D9CFE6FFE1CFD9FFE652000113
:10259000A851010A1BE0010A32E1E66AE66ADEDEC2
:1025A000E552E552DF6A100EDF5C0CE2DF50EA6AAA
:1025B000A90FE96E000EEA22EF50E66E16DDE55235
:1025C000DF2AF1D70001010EA86F1AD0E66A010ECA
:1025D000E66EC4DEE552E552DF6A100EDF5C0CE207
:1025E000DF50EA6AB90FE96E000EEA22EF50E66E9C
:1025F000FCDCE552DF2AF1D70001A86B01D0A86B03
:10260000E552E552E7CFD9FF1200D9CFE6FFE1CF7F
:10261000D9FFFE0EDB50010B0001FA6FFB6BFD0EC4
:10262000DB500F0BFC6FFD6BFAC014F0FBC015F014
:10263000040ED89014361536E806FBE1A90E1426D0
:10264000000E152214500001FC25E96E1550FD21E5
:10265000EA6EFC0EDBCFEFFFE552E7CFD9FF1200A9
:10266000D9CFE6FFE1CFD9FF0F0EE126D950F90F00
:10267000E96EFF0EDA20EA6EEECFE6FFEECFE6FF60
:10268000EECFE6FFEFCFE6FF200E146E3B0E156E89
:10269000166A14C0E6FFE66E16C0E6FFD9CFE6FF65
:1026A000DACFE6FF9AEC1EF0176E090EE15E1750C6
:1026B000D9CFE6FFDACFE6FFFD0EDBCFE6FFFE0E59
:1026C000DBCFE6FFD2DEE552E552E552E5520F0ED2
:1026D000E15C02E2E16AE552E16EE552E7CFD9FF43
:1026E0001200D9CFE6FFE1CFD9FFFE0EDB50010B80
:1026F0000001FA6FFB6BFD0EDB500F0BFC6FFD6BE7
:10270000FB0EDBCFF6FFFC0EDBCFF7FF0800F5502A
:102710000FE0FB0EDBCFF6FFDB2AFC0EDBCFF7FF73
:1027200001E3DB2A0800F550E66E7CDEE552E8D7CF
:08273000E552E7CFD9FF1200CA
:08273800D9CFE6FFE1CFD9FF84
:10274000D59EFD0EDBCFC9F0FE0EDBCFCAF0D59CC7
:1027500017681868196AC9C01AF0CAC01BF01C6A49
:102760001A50175C146E1B501858156E1C501958CF
:10277000166E0C6A010E0D6E0E6A14C007F015C0BD
:1027800008F016C009F040EC1EF00350D66E176832
:102790001868196AC9C01AF0CAC01BF01C6A1A501E
:1027A000175C146E1B501858156E1C501958166E75
:1027B0000C6A010E0D6E0E6A14C007F015C008F009
:1027C00016C009F040EC1EF007C014F008C015F068
:1027D00009C016F00750D76ED59AD586F28AF294C2
:1027E000F184D58EE552E7CFD9FF1200D59E1200B5
:1027F00017681868196AC9C01AF0CAC01BF01C6AA9
:102800001A50175C146E1B501858156E1C5019582E
:10281000166E0C6A010E0D6E0E6A14C007F015C01C
:1028200008F016C009F040EC1EF00350D66E176891
:102830001868196AC9C01AF0CAC01BF01C6A1A507D
:10284000175C146E1B501858156E1C501958166ED4
:102850000C6A010E0D6E0E6A14C007F015C008F068
:1028600016C009F040EC1EF007C014F008C015F0C7
:1028700009C016F00750D76ED58E1200D9CFE6FFEB
:10288000E1CFD9FFCD90FD0EDBCFCBF0FE0EDBCF3D
:10289000CCF017681868196ACBC01AF0CCC01BF0CE
:1028A0001C6A1A50175C146E1B501858156E1C5079
:1028B0001958166E0C6A010E0D6E0E6A14C007F0E0
:1028C00015C008F016C009F040EC1EF00750CF6E9E
:1028D00017681868196ACBC01AF0CCC01BF01C6AC4
:1028E0001A50175C146E1B501858156E1C5019584E
:1028F000166E0C6A010E0D6E0E6A14C007F015C03C
:1029000008F016C009F040EC1EF003C014F004C03B
:1029100015F005C016F00350CE6E9D809E909F90DE
:10292000CD8ECD8CCD98CD9ACD96CD92CD80E552E1
:10293000E7CFD9FF120017681868196ACBC01AF0E0
:10294000CCC01BF01C6A1A50175C146E1B50185830
:10295000156E1C501958166E0C6A010E0D6E0E6A1B
:1029600014C007F015C008F016C009F040EC1EF0C6
:102970000750CF6E17681868196ACBC01AF0CCC020
:102980001BF01C6A1A50175C146E1B501858156EF9
:102990001C501958166E0C6A010E0D6E0E6A14C08A
:1029A00007F015C008F016C009F040EC1EF003C097
:1029B00014F004C015F005C016F00350CE6ECD80A3
:1029C0001200CD901200D9CFE6FFE1CFD9FFCA9413
:1029D000CC6AFE0EDB500001CD6FCE6BCB6E9D82BC
:1029E0009E929F92CA90CA92CA84E552E7CFD9FFBD
:1029F0001200CDC0CBFFCA841200CA941200D9CFF6
:102A0000E6FFE1CFD9FFB190FD0EDBCFCFF0FE0E98
:102A1000DBCFD0F017681868196ACFC01AF0D0C0A1
:102A20001BF01C6A1A50175C146E1B501858156E58
:102A30001C501958166E0C6A010E0D6E0E6A14C0E9
:102A400007F015C008F016C009F040EC1EF0075062
:102A5000B36E17681868196ACFC01AF0D0C01BF09F
:102A60001C6A1A50175C146E1B501858156E1C50B7
:102A70001958166E0C6A010E0D6E0E6A14C007F01E
:102A800015C008F016C009F040EC1EF003C014F0A9
:102A900004C015F005C016F00350B26EA082A192DA
:102AA000A292B18EB198B19AB192B180E552E7CFBE
:102AB000D9FF120017681868196ACFC01AF0D0C081
:102AC0001BF01C6A1A50175C146E1B501858156EB8
:102AD0001C501958166E0C6A010E0D6E0E6A14C049
:102AE00007F015C008F016C009F040EC1EF00350C6
:102AF000B26E17681868196ACFC01AF0D0C01BF000
:102B00001C6A1A50175C146E1B501858156E1C5016
:102B10001958166E0C6A010E0D6E0E6A14C007F07D
:102B200015C008F016C009F040EC1EF007C014F004
:102B300008C015F009C016F00750B36EB18012003E
:102B4000B19012000001E151E21101E11200D92B14
:102B5000000EDA23E151D95DE251DA5904E3D96B71
:102B6000DA6B010ED16F12000001DB2B000EDC23AB
:102B7000E351DB5DE451DC5904E3DB6BDC6B010EFC
:102B8000D26F12000001DD2B000EDE23E551DD5D6A
:102B9000E651DE5904E3DD6BDE6B010ED36F1200EC
:102BA0000001DF2B000EE023E751DF5DE851E05923
:102BB00004E3DF6BE06B010ED46F1200D9CFE6FFA8
:102BC000E1CFD9FFFD0EDBCFE1F0FE0EDBCFE2F06F
:102BD0000001D96BDA6BD16BE552E7CFD9FF120058
:102BE000D9CFE6FFE1CFD9FFFD0EDBCFE3F0FE0E3C
:102BF000DBCFE4F0050E0D6E0E6AE3C008F0E4C012
:102C000009F01AEC1EF008C0E3F009C0E4F000017E
:102C1000DB6BDC6BD26BE552E7CFD9FF1200D9CF6B
:102C2000E6FFE1CFD9FFFD0EDBCFE7F0FE0EDBCFF5
:102C3000E8F00A0E0D6E0E6AE7C008F0E8C009F071
:102C40001AEC1EF008C0E7F009C0E8F00001DF6BE5
:0C2C5000E06BD46BE552E7CFD9FF120017
:042C5C00B06A810ECB
:102C6000AF6EAC8AAC94B886AC98AB8EAB889E9AAB
:102C70009D8A9F9A949C948E1200D9CFE6FFE1CF53
:102C8000D9FF040EE126DE6ADD6ADECF14F0DDCF67
:102C900015F0FD0EDBCF16F0FE0EDBCF17F0155052
:102CA0001718E8AE02D0173404D01650145C175031
:102CB00015581DE2020EDB6A030EDB6A020EDBCF43
:102CC00014F0030EDBCF15F0D890155004E6EE0E8D
:102CD000145C000E155806E2020EDB2A030EEEE32A
:102CE000DB2AECD7DF2A010ED0E3DB2ACED7040E95
:102CF000E15C02E2E16AE552E16EE552E7CFD9FF1D
:102D00001200D9CFE6FFE1CFD9FF9EA8FED7FE0E75
:102D1000DB50AD6E9E98E552E7CFD9FF1200D9CFB8
:102D2000E6FFE1CFD9FFFD0EDBCFE9FFFE0EDBCFE3
:102D3000EAFFEF5010E0FD0EDBCFE9FFFE0EDBCF28
:102D4000EAFFEF50E66EDDDFE552FD0EDB2AFE0EF8
:102D5000EAE3DB2AE8D7E552E7CFD9FF1200D9CF63
:102D6000E6FFE1CFD9FFFD0EDBCFE9FFFE0EDBCFA3
:102D7000EAFFEF5010E0FD0EDBCFE9FFFE0EDBCFE8
:102D8000EAFFEF50E66EBDDFE552FD0EDB2AFE0ED8
:102D9000EAE3DB2AE8D7E552E7CFD9FF1200D9CF23
:102DA000E6FFE1CFD9FFFD0EDBCFF6FFFE0EDBCF56
:102DB000F7FF0800F55015E0FD0EDBCFF6FFFE0E25
:102DC000DBCFF7FF0800F550E66E9BDFE552FD0E06
:102DD000DBCFF6FFDB2AFE0EDBCFF7FFE4E3DB2AD7
:102DE000E2D7E552E7CFD9FF1200D9CFE6FFE1CF16
:102DF000D9FF050EE126010EF36EDB6E020EDB6AD3
:102E0000030EDB6A040EDB6ADF6ADFCF14F0156A9B
:102E100014BE1568FB0EDBCF16F0FC0EDBCF17F0EF
:102E200015501718E8AE02D0173404D01650145CB1
:102E3000175015582DE2FD0EDBCF14F0FE0EDBCF40
:102E400015F0166A176A15AE02D016681768D950C1
:102E5000010FE96EDACFEAFF14C00BF015C00CF0D9
:102E600016C00DF017C00EF0EECF06F0EECF07F053
:102E7000EECF08F0EFCF09F081EC1FF005C0EDFFB9
:102E800004C0EDFF03C0EDFF02C0EFFFDF2ABDD796
:102E9000010EDBCF14F0020EDBCF15F0030EDBCFFB
:102EA00016F0040EDBCF17F014C006F015C007F0C3
:102EB00016C008F017C009F0050EE15C02E2E16AF5
:102EC000E552E16EE552E7CFD9FF1200D9CFE6FF18
:102ED000E1CFD9FF020EE126DF6AFB0EDBCF14F053
:102EE000FC0EDBCF15F0FD0EDBCF16F0FE0EDBCFB8
:102EF00017F0145015101610171005E1300EE66E7D
:102F000000DFE552F4D0D950FB0FE96EFF0EDA2056
:102F1000EA6ED890030EEB50000A08E6000EEE5C55
:102F2000000EEE58000EEE58000EEE5815E22D0E73
:102F3000E66EE7DEE552D950FB0FE96EFF0EDA20B0
:102F4000EA6E000EEE6CEF1EEE22EF1EEE22EF1E7A
:102F5000EF22ED52ED52ED52DE520A0EDD6E010E01
:102F6000DBCF14F0000EE76E1418E8AE02D0143474
:102F700003D0E750D880145401E3B9D0010EDB042C
:102F8000186E196A18BE196818C0E6FF19C0E6FF66
:102F90000A0EE66EE66A29DFE552E552E552E55291
:102FA00006C014F007C015F008C016F009C017F0ED
:102FB00006C00BF007C00CF008C00DF009C00EF001
:102FC000FB0EDBCF06F0FC0EDBCF07F0FD0EDBCFF8
:102FD00008F0FE0EDBCF09F0ECEC1FF006500710F6
:102FE0000810091041E0010EDF6EDB041C6E1D6A43
:102FF0001CBE1D681CC0E6FF1DC0E6FF0A0EE66E83
:10300000E66AF3DEE552E552E552E55206C018F0F5
:1030100007C019F008C01AF009C01BF006C00BF079
:1030200007C00CF008C00DF009C00EF0FB0EDBCF9E
:1030300006F0FC0EDBCF07F0FD0EDBCF08F0FE0E36
:10304000DBCF09F0ECEC1FF006C014F007C015F060
:1030500008C016F009C017F0300E1426000E152215
:1030600016221722145003D0DF5004E0300EE66E13
:1030700048DEE552010EDB04186E196A18BE1968A5
:1030800018C0E6FF19C0E6FF0A0EE66EE66AADDE7E
:10309000E552E552E552E55206C014F007C015F0BE
:1030A00008C016F009C017F0D950FB0FE96EFF0EEB
:1030B000DA20EA6E06C00BF007C00CF008C00DF075
:1030C00009C00EF0EECF06F0EECF07F0EECF08F01D
:1030D000EFCF09F0ECEC1FF005C0EDFF04C0EDFFF1
:1030E00003C0EDFF02C0EFFF010EDB0638D7020E72
:1030F000E15C02E2E16AE552E16EE552E7CFD9FF19
:0431000012001200A7
:0C3104000F0E946E82681200D9CFE6FF17
:10311000E1CFD9FF040EE126DE6ADD6ADECF14F0CE
:10312000DDCF15F0D890155004E6040E145C000EA7
:10313000155801E390D0DECFE9FFDDCFEAFFA00E06
:10314000E926000EEA22EF1C826E020EDB6A030EF5
:10315000DB6A020EDBCF14F0030EDBCF15F0D89044
:10316000155004E6040E145C000E15586EE2020EB3
:10317000DBCFE9FF030EDBCFEAFFA40EE926000E4A
:10318000EA22EF5082143FE1DECF18F0DDCF19F0D4
:10319000D89018361936D89018361936020EDB50EA
:1031A0001824E96E030EDB501920EA6ED890E93638
:1031B000EA36800EE926000EEA22EECF16F0EFCFB7
:1031C00017F0010E1626000E1722DECF14F0DDCF09
:1031D00015F0D89014361536D89014361536020EE0
:1031E000DB501424E96E030EDB501520EA6ED890F4
:1031F000E936EA36800EE926000EEA2216C0EEFF16
:1032000017C0EDFF1BD0DECF14F0DDCF15F0D89046
:1032100014361536D89014361536020EDB501424A9
:10322000E96E030EDB501520EA6ED890E936EA36D7
:10323000800EE926000EEA22EE6AED6A020EDB2A13
:10324000030E01E286D7DB2A84D7DF2A010E01E2D2
:1032500065D7DB2A63D7040EE15C02E2E16AE5523E
:10326000E16EE552E7CFD9FF1200D9CFE6FFE1CFFB
:10327000D9FF040EE126DE6ADD6ADECF14F0DDCF71
:1032800015F0D890155004E6040E145C000E155885
:1032900001E3A3D0D9CFE9FFDACFEAFFEE50ED107A
:1032A00001E195D0DECFE9FFDDCFEAFFA00EE926F0
:1032B000000EEA22EF1C826E020EDB6A030EDB6A4E
:1032C000020EDBCF14F0030EDBCF15F0D8901550B3
:1032D00004E6040E145C000E155801E378D0D950B2
:1032E000020FE96EDACFEAFF030EEE1801E1ED50AE
:1032F00067E0020EDBCFE9FF030EDBCFEAFFA40E8F
:10330000E926000EEA22EF5082143FE1DECF18F0EA
:10331000DDCF19F0D89018361936D89018361936EE
:10332000020EDB501824E96E030EDB501920EA6E02
:10333000D890E936EA36800EE926000EEA22EECF72
:1033400016F0EFCF17F0010E1626000E1722DECF73
:1033500014F0DDCF15F0D89014361536D890143609
:103360001536020EDB501424E96E030EDB501520D7
:10337000EA6ED890E936EA36800EE926000EEA2297
:1033800016C0EEFF17C0EDFF1BD0DECF14F0DDCF6F
:1033900015F0D89014361536D89014361536020E1E
:1033A000DB501424E96E030EDB501520EA6ED89032
:1033B000E936EA36800EE926000EEA22EE6AED6A68
:1033C000020EDB2A030E01E27BD7DB2A79D7DF2A44
:1033D000010E01E252D7DB2A50D7040EE15C02E273
:1033E000E16AE552E16EE552E7CFD9FF1200D9CF8D
:1033F000E6FFE1CFD9FF040EE126DE6ADD6ADECF0B
:1034000014F0DDCF15F0FD0EDBCF16F0FE0EDBCF96
:1034100017F015501718E8AE02D0173404D0165024
:10342000145C175015581DE2020EDB6A030EDB6AAE
:10343000020EDBCF14F0030EDBCF15F0D890155041
:1034400004E6EE0E145C000E155806E2020EDB2AAE
:10345000030EEEE3DB2AECD7DF2A010ED0E3DB2AF2
:10346000CED7040EE15C02E2E16AE552E16EE5527C
:10347000E7CFD9FF1200D9CFE6FFE1CFD9FF040E85
:10348000E126DE6ADD6ADECF14F0DDCF15F0D890DC
:10349000155004E6040E145C000E155875E2DECFDC
:1034A000E9FFDDCFEAFFA00EE926000EEA22EF1CBD
:1034B000826E020EDB6A030EDB6A020EDBCF14F0B3
:1034C000030EDBCF15F0D890155004E6040E145C03
:1034D000000E15584AE2DECF14F0DDCF15F0D8907B
:1034E00014361536D89014361536020EDB501424D7
:1034F000E96E030EDB501520EA6ED890E936EA3605
:10350000800EE926000EEA22EE6AED6A020EDBCF9B
:10351000E9FF030EDBCFEAFFA40EE926000EEA2244
:10352000EF5082141CE1DECF14F0DDCF15F0D890FF
:1035300014361536D89014361536020EDB50142486
:10354000E96E030EDB501520EA6ED890E936EA36B4
:10355000800EE926000EEA22010EEE6EED6A020EE2
:10356000DB2A030EAAE3DB2AA8D78250816EE80E7D
:10357000E66E030EE66E3BDFE552E552DF2A010EF2
:1035800001E281D7DB2A7FD7040EE15C02E2E16A27
:0C359000E552E16EE552E7CFD9FF1200D2
:04359C0095909592DF
:1035A00095949586838083821200D9CFE6FFE1CF80
:1035B000D9FFE652DF6AFE0EDB50DF5C02E2DF2A53
:1035C000FAD7E552E552E7CFD9FF120083A6000CE7
:1035D000010C8390120083801200D9CFE6FFE1CF67
:1035E000D9FF020EE126010EDB6A8392DF6A080E24
:1035F000DF5C25E2FE0EDBCFE6FF800EDF5206E049
:10360000DFCFF3FFE8327F0BF306FCE1E552E7146E
:1036100002E0010E01D0000EE8B08384E8A083949C
:103620008382010EDB50020D010EF3CFDBFFCEDFF4
:10363000000902E0010EDB808392DF2AD8D7010E59
:10364000DB50146E020EE15C02E2E16AE552E16ECB
:103650001450E552E7CFD9FF1200D9CFE6FFE1CFF2
:10366000D9FFB7DFFE0EDB50E824E66EB6DFE55289
:10367000FD0EDBCFE6FFB1DFE552ADDFE552E7CF70
:10368000D9FF1200D9CFE6FFE1CFD9FFE652A1DF83
:10369000FE0EDB50E8248009E66E9FDFE552E66A05
:1036A0009CDFE552DF6E97DFDF50E552E552E7CF52
:1036B000D9FF1200D9CFE6FFE1CFD9FF030EE126F3
:1036C000020EDB6AFD0EDB5071E083DFFD0EDB06D0
:1036D000FE0EDB50E8248009E66E7FDFE552FA0E2D
:1036E000DB5030E0FF0EF36EFA0EDB5004E0D890B2
:1036F000F336E806FCE1F350DF6EFE0EDB50E82403
:103700008009E66E6ADFE552E76E010EE7CFDBFF68
:10371000DB50DF14156EDF1C146EFB0EDBCFE9FFF0
:10372000FC0EDBCFEAFFEF5014141510E66EFB0E13
:10373000DBCFE9FFFC0EDBCFEAFFE552E750EF6E8F
:10374000020EDB2AFD0EDB50F36E020EDBCFF4FF20
:10375000F350F45C16E2FE0EDB50E8248009E66EBE
:103760003CDFE552E66E020EDB50E76EFB0EDBCF70
:10377000E9FFFC0EDBCFEAFFE750E926000EEA2264
:10378000DCD7E66A2ADFE552E66E020EDB50E76E12
:10379000FB0EDBCFE9FFFC0EDBCFEAFFE750E926AB
:1037A000000EEA22E552E750EF6E15DF030EE15CF2
:1037B00002E2E16AE552E16EE552E7CFD9FF12007D
:1037C000D9CFE6FFE1CFD9FFE65203DFFE0EDB5093
:1037D000E824E66E02DFE552DF6AFD0EDB50DF5CB7
:1037E00012E2DF50E76EFB0EDBCFE9FFFC0EDBCF12
:1037F000EAFFE750E926000EEA22EF50E66EEDDE22
:10380000E552DF2AEAD7E7DEE552E552E7CFD9FFF6
:023810001200A4
:0E381200F28ED08EF28C1200F19CF292F288AF
:103820001200D8CFE4FFE0CFE4FFE46EDACFE4FF8C
:10383000E2CFDAFFE9CFE4FFEACFE4FFF6CFE4FF1F
:10384000F7CFE4FFF5CFE4FFF3CFE4FFF4CFE4FFDD
:10385000FACFE4FF00EE00F0140EE80403E3EECF2D
:10386000E4FFFBD700EE14F00A0EE80403E3EECF0A
:10387000E4FFFBD7E652F2A407D0F6EC13F0F29483
:10388000F8EC13F0A2EC15F09EA007D0E1EC14F0D8
:103890009E909BEC14F0B4EC15F0A1A207D0A0EC24
:1038A00015F0A1925AEC15F0D0EC15F0F2B2F292AC
:1038B0009EBA9E9AE55200EE1DF00A0EE80403E35C
:1038C000E5CFEDFFFBD700EE13F0140EE80403E3A1
:1038D000E5CFEDFFFBD7E5CFFAFFE5CFF4FFE5CF6E
:1038E000F3FFE5CFF5FFE5CFF7FFE5CFF6FFE5CF37
:1038F000EAFFE5CFE9FFE5CFDAFFE550E5CFE0FFEE
:10390000E5CFD8FF1000DACFE4FFE2CFDAFFE9CF4E
:10391000E4FFEACFE4FFF6CFE4FFF7CFE4FFF5CF13
:10392000E4FFF3CFE4FFF4CFE4FFFACFE4FF00EECF
:1039300000F0140EE80403E3EECFE4FFFBD700EE43
:1039400014F00A0EE80403E3EECFE4FFFBD7E652DF
:10395000F2A407D0F6EC13F0F294F8EC13F0A2EC1A
:1039600015F09EA007D0E1EC14F09E909BEC14F0B3
:10397000B4EC15F0A1A207D0A0EC15F0A1925AEC7E
:1039800015F0D0EC15F0F2B2F2929EAA03D09E9AF6
:1039900081EC18F0E55200EE1DF00A0EE80403E396
:1039A000E5CFEDFFFBD700EE13F0140EE80403E3C0
:1039B000E5CFEDFFFBD7E5CFFAFFE5CFF4FFE5CF8D
:1039C000F3FFE5CFF5FFE5CFF7FFE5CFF6FFE5CF56
:0C39D000EAFFE5CFE9FFE5CFDAFF1100C8
:0439DC00D9CFE6FF5A
:1039E000E1CFD9FF020EE126DE6ADD6A66D85EEC21
:1039F00012F01A0EE66E3B0EE66EE66AE66A71ECAF
:103A000013F0E552E552E552E5528DEC12F0E80E66
:103A1000E66E030EE66E0DD8E552E552C5EC06F0F3
:103A20000001D451FDE0D46B81EC03F00009F8E013
:103A3000F5D7D9CFE6FFE1CFD9FF040EE126DE6A44
:103A4000DD6ADECF14F0DDCF15F0FD0EDBCF16F012
:103A5000FE0EDBCF17F015501718E8AE02D0173462
:103A600004D01650145C175015581DE2020EDB6A84
:103A7000030EDB6A020EDBCF14F0030EDBCF15F072
:103A8000D890155004E6A00E145C000E155806E2FE
:103A9000020EDB2A030EEEE3DB2AECD7DF2A010E4F
:103AA000D0E3DB2ACED7040EE15C02E2E16AE55204
:103AB000E16EE552E7CFD9FF1200936A24EC0FF0D4
:103AC00009EC1CF0E80EE66E030EE66EB2DFE5527E
:103AD000E552570EE66E120EE66E9CEC13F0E552C0
:103AE000E552660EE66EB70EE66EFFEC14F0E55298
:103AF000E552000EE66EE66ADEEC15F0E552E552A0
:103B0000320EE66EE66A0FEC16F0E552E55282ECF4
:0A3B100018F02EEC00F02EEF16F076
:063B1A0048454C4C4F0031
:103B2000256C640044756D70696E67206D656D6FFE
:103B3000727920636F6E74656E7473206E6F74207B
:103B4000696D706C656D656E74656420666F72205A
:103B500074686174205049434320747970652E0065
:103B6000504943435F545950455F4D494641524582
:103B70005F554C00504943435F545950455F4D4990
:103B8000464152455F344B005741524E494E473AE9
:103B900020436F6D6D756E69636174696F6E206629
:103BA00061696C7572652C20697320746865204D9D
:103BB0004652433532322070726F7065726C7920D4
:103BC000636F6E6E65637465643F00203D202875E9
:103BD0006E6B6E6F776E2900203D20636F756E747B
:103BE000657266656974206368697000203D20769F
:103BF000322E3000203D2076312E3000203D2076C0
:103C0000302E3000203D2028636C6F6E6529000A3D
:103C10004669726D776172652056657273696F6E61
:103C20003A203078000A4E6F2054696D654F7574E4
:033C3000000A0087
:0C3C3400006A0EAE23EF1EF00D6C0E1E99
:103C4000E86A0E22001E09AE2BEF1EF0086C091E5A
:103C5000E86A0922001E2DEC20F009BE3BEF1EF0A1
:103C600000AE000C086C091EE86A0922046C051EEF
:103C7000E86A0522000C00BE32EF1EF00188FF0C3E
:103C8000006A0EAE4BEF1EF00C6C0D1E0E1EE86AA5
:103C90000D220E22001E09AE55EF1EF0076C081E05
:103CA000091EE86A08220922001E10EC20F009BE55
:103CB00068EF1EF000AE000C076C081E091EE86AD3
:103CC00008220922036C041E051E04220522000C92
:103CD00000BE5CEF1EF00188FF0C09C013F008C0A5
:103CE00012F008500D02F4CF07F0F3CF06F00950A0
:103CF0000E02F4CF09F0F3CF08F00D02F3500726BF
:103D0000F4500822E86A092212500E02F3500726E6
:103D1000F4500822E86A09220EAE93EF1EF012500A
:103D2000085E1350095A13AE000C0D50085E0E5079
:043D3000095A000C20
:0C3D3400D9CFE6FFDACFE6FFE1CFD9FFE0
:103D4000E2CFDAFFE652E652E652E652D950F90FD8
:103D5000146EFF0EDA20156E020E14C0DBFF030E88
:103D600015C0DBFF020EDBCFE6FF030EDBCFE6FF65
:103D7000F90EDBCFE6FFFA0EDBCFE6FFFB0EDBCF63
:103D8000E6FFD950FC0FE66EFF0EDA20E66E63EC1C
:103D900008F0146E070EE15C02E2E16AE552E16EA2
:103DA0001450F3CFDEFFF4CFDDFFFC0EDBCFE9FFD5
:103DB000FD0EDBCFEAFFEF6ADECF14F0DDCF15F0AA
:103DC00014C0F3FF15C0F4FF040EE15C02E2E16AE7
:103DD000E552E16EE552E5CFDAFFE7CFD9FF1200F9
:103DE0001E0EF66E000EF76E000EF86E0F01090043
:103DF000F5501F6F0900F550206F03E11F6701D0D8
:103E00003DD00900F5501A6F0900F5501B6F0900ED
:103E1000F5501C6F09000900F550E96E0900F550D6
:103E2000EA6E090009000900F5501D6F0900F55000
:103E30001E6F09000900F6CF21FFF7CF22FFF8CF50
:103E400023FF1ACFF6FF1BCFF7FF1CCFF8FF0F01A0
:103E50001D5302E11E5307E00900F550EE6E1D07E9
:103E6000F8E21E07F9D721CFF6FF22CFF7FF23CFC5
:0E3E7000F8FF0F011F07000E205BBFD71200E6
:023E7E00D9CF9A
:103E8000E6FFDACFE6FFE1CFD9FFE2CFDAFFFB0EA4
:103E9000DBCF14F0FC0EDBCF15F00001800E151403
:103EA0001AE1FB0EDBCFE9FFFC0EDBCFEAFFEECF22
:103EB000F3FFEDCFF4FFEE2A000EEF22F3CFE9FF80
:103EC000F4CFEAFFFD0EDBCFEFFFEF50156AF36E84
:103ED00015C0F4FF10D0FB0EDB50FE0806E1FD0E0E
:103EE000DBCFE6FF73EC20F005D0FD0EDBCFE6FF65
:103EF00003EC00F0E552E552E5CFDAFFE7CFD9FF5A
:023F00001200AD
:0E3F020006500B02F3CF02F0F4CF03F00C02D6
:103F1000F3500326000EF420046E06500D02F350F9
:103F20000426000EF420056E06500E02F3500526FE
:103F300007500B02F3500326F4500422000E052212
:103F400007500C02F3500426F450052207500D02CE
:103F5000F350052608500B02F3500426F4500522B6
:103F600008500C02F350052609500B02F3500526A9
:023F700012003D
:0E3F7200FE0EE3CFE9FFFF0EE3CFEAFFF36A96
:103F8000F46AEE5203E0F34AF42AFBD71200FF0E64
:103F9000E3CFF8FFE552FF0EE3CFF7FFE552FF0E48
:103FA000E3CFF6FFE552E66AE66AE66A0900F552F3
:103FB00009E0FD0EE32A05E1FE0EE32A02E1FF0E11
:103FC000E32AF4D7FD0EE3CF07F0FE0EE3CF08F0AF
:083FD000FF0EE3CF09F012001F
:083FD800056A046A036A026A2B
:103FE000200EE76ED89006360736083609360236B8
:103FF0000336043605360B50025C0C5003580D5046
:1040000004580E50055809E30B50025E0C50035A39
:104010000D50045A0E50055A062AE72EE4D7120016
:10402000056A046A036A180EE76ED89007360836E8
:1040300009360336043605360C50035C0D5004581F
:104040000E50055807E30C50035E0D50045A0E50F5
:0A405000055A072AE72EEAD71200EE
:06405A00056A046A100E65
:10406000E76ED89008360936043605360D50045CE4
:104070000E50055805E30D50045E0E50055A082AEF
:06408000E72EF0D712004C
:0A408600F36AF46AFF0EE124E96E0C
:10409000FF0EE220EA6EED6607D02F0EEF6404D02B
:0A40A0003A0EEF6001D0F32A12007F
:0640AA00800EF36E00EE33
:1040B00000F00F0E01D81200EA6002D0EE6AFCD7C1
:0A40C000F350E9601200EE6AFCD72D
:0640CA001EEE00F02EEED8
:1040D00000F0F86A019CF0EC1EF007EC00F0EEEC4A
:0640E0001CF0FBD71200EA
:0A40E600FF0EE350ACBA04D0AF6A3D
:1040F000AB8EAC8A949CACA2FED7AD6EF36EF46A24
:024100001200AB
:0E410200303132333435363738396162636418
:03411000656600E1
:0D411300000000000000000000000000009F
:10412000000000000000000000000001000100018C
:034130000001008B
:0D41330000202020202020202020202020FF
:10414000202020202020202020202020202020206F
:0441500020202020EB
:0C4154000000000000000000000000005F
:10416000000000000000000000000000000000004F
:0C41700000000000102040800102040844
:020000040030CA
:0100010002FC
:0100020003FA
:010003001EDE
:010005008179
:010006008178
:010008000FE8
:01000900C036
:01000A000FE6
:01000B00E014
:01000C000FE4
:01000D0040B2
:00000001FF
