:020000040000FA
:0600000005EF23F01200E1
:020006001200E6
:0600080067EF1FF012007B
:02000E001200DE
:03001000000000ED
:0400130000000000E9
:06001800F5EF1EF01200DE
:02001E000500DB
:10002000944600008000000028000000130000003B
:10003000FB0000000400000073460000A800000060
:100040002100000053460000C9000000200000000D
:0C00500010000000160F0000030000006C
:04005C00D9CFE6FF13
:10006000E1CFD9FFDBEC21F0FE0EDBCFE6FFC3ECE6
:1000700021F0E552FD0EDBCFE6FFC3EC21F0E552A7
:10008000DDEC21F0E552E7CFD9FF1200D9CFE6FF32
:10009000E1CFD9FFE652DBEC21F0FE0EDB50800908
:1000A000E66EC3EC21F0E552D5EC21F0DF6EDDEC1D
:1000B00021F0DF50E552E552E7CFD9FF1200D9CF4A
:1000C000E6FFE1CFD9FF030EE126020EDB6AFD0E4B
:1000D000DB5001E17AD0DBEC21F0FD0EDB06FE0EF9
:1000E000DB508009E66EC3EC21F0E552FA0EDB50DE
:1000F00033E0FF0EF36EFA0EDB5004E0D890F336D7
:10010000E806FCE1F350DF6ED5EC21F0E76E010E5E
:10011000E7CFDBFFFE0EDB508009E66EC3EC21F07B
:10012000E552010EDB50DF14156EDF1C146EFB0E62
:10013000DBCFE9FFFC0EDBCFEAFFEF501414151004
:10014000E66EFB0EDBCFE9FFFC0EDBCFEAFFE552EC
:10015000E750EF6E020EDB2AFD0EDB50F36E020E4F
:10016000DBCFF4FFF350F45C1BE2D5EC21F0E66E3C
:10017000020EDB50E76EFB0EDBCFE9FFFC0EDBCFA0
:10018000EAFFE750E926000EEA22E552E750EF6E5B
:10019000FE0EDB508009E66EC3EC21F0E552DAD7A3
:1001A000D5EC21F0E66E020EDB50E76EFB0EDBCFE6
:1001B000E9FFFC0EDBCFEAFFE750E926000EEA225A
:1001C000E552E750EF6EDDEC21F0030EE15C02E258
:1001D000E16AE552E16EE552E7CFD9FF1200D9CFCF
:1001E000E6FFE1CFD9FFE652DBEC21F0FE0EDBCFDC
:1001F000E6FFC3EC21F0E552DF6AFD0EDB50DF5C69
:1002000013E2DF50E76EFB0EDBCFE9FFFC0EDBCF26
:10021000EAFFE750E926000EEA22EF50E66EC3EC53
:1002200021F0E552DF2AE9D7DDEC21F0E552E55275
:10023000E7CFD9FF1200D9CFE6FFE1CFD9FFE652D1
:10024000E66A020EE66E0ADFE552E552040EE66E3D
:100250000A0EE66E03DFE552E552800EE66E140EDE
:10026000E66EFCDEE552E552FD0EDBCFE6FFFE0E4C
:10027000DBCFE6FFFC0EDBCFE6FF120EE66EAFDF54
:10028000E552E552E552E552030EE66E020EE66EC9
:10029000E5DEE552E552590EE66EE66AE9EC18F045
:1002A000E552E5520001D15131E10A0EE66EEEDE73
:1002B000E552DF6EDFA4F6D7E66A020EE66ECEDE0A
:1002C000E552E552440EE66EE1DEE552E66EFA0EC8
:1002D000DBCFE9FFFB0EDBCFEAFFE552E750EF6E25
:1002E000420EE66ED3DEE552E66E010EE76EFA0EC2
:1002F000DBCFE9FFFB0EDBCFEAFFE750E926000E7C
:10030000EA22E552E750EF6E000E01D0030EE552EF
:10031000E552E7CFD9FF1200D9CFE6FFE1CFD9FFF1
:10032000E652FE0EDBCFE6FFB1DEE552DF6EFD0EDC
:10033000DB50DF10E66EFE0EDBCFE6FF8FDEE55210
:10034000E552E552E552E7CFD9FF1200D9CFE6FFDB
:10035000E1CFD9FFE652FE0EDBCFE6FF97DEE55296
:10036000DF6EFD0EDB1CDF14E66EFE0EDBCFE6FF5C
:1003700075DEE552E552E552E552E7CFD9FF1200AE
:10038000D9CFE6FFE1CFD9FFE652280EE66E7EDE3A
:10039000E552DF6E030EDF14030808E0030EDF10E2
:1003A000E66E280EE66E5ADEE552E552E552E5525B
:1003B000E7CFD9FF1200030EE66E280EE66EC6DF09
:1003C000E552E5521200D9CFE6FFE1CFD9FFE65260
:1003D000DF6A0F0EE66E020EE66E40DEE552E55273
:1003E000320EE66EE66AE9EC18F0E552E5520001DD
:1003F000D151FDE0020EE66E49DEE552100B04E03D
:10040000DF2A030EDF5CECE3E552E552E7CFD9FFCC
:100410001200400EE66EE66AE66A200EE66E9BEC7F
:1004200021F0E552E552E552E552CDDFE66A240EB1
:10043000E66E14DEE552E552E66A260EE66E0EDE44
:10044000E552E552260EE66E480EE66E07DEE552F0
:10045000E552800EE66E540EE66E00DEE552E55281
:10046000A90EE66E560EE66EF9DDE552E552030E74
:10047000E66E580EE66EF2DDE552E552E80EE66EE7
:100480005A0EE66EEBDDE552E552400EE66E2A0EA0
:10049000E66EE4DDE552E5523D0EE66E220EE66EB6
:1004A000DDDDE552E552C0EF01F0D9CFE6FFE1CF47
:1004B000D9FFFB0EDBCFE6FFFC0EDBCFE6FFFD0E28
:1004C000DBCFE6FFFE0EDBCFE6FF260EE66E23D87F
:1004D000146E050EE15E1450E552E7CFD9FF12000D
:1004E000D9CFE6FFE1CFD9FFFB0EDBCFE6FFFC0E55
:1004F000DBCFE6FFFD0EDBCFE6FFFE0EDBCFE6FF38
:10050000520EE66E08D8146E050EE15E1450E552E8
:10051000E7CFD9FF1200D9CFE6FFE1CFD9FF020E16
:10052000E126D950FC0FE96EFF0EDA20EA6EEE509C
:10053000ED100BE0FA0EDBCFE9FFFB0EDBCFEAFF9D
:10054000EFCF14F0020E145C02E2040E3FD0800ED6
:10055000E66E1C0EE66EFADEE552E552070EDF6E21
:10056000E66AE66AD9CFE6FFDACFE6FFFA0EDBCF1E
:10057000E6FFFB0EDBCFE6FFFC0EDBCFE6FFFD0E5A
:10058000DBCFE6FF010EE66ED950FE0FE66EFF0EE2
:10059000DA20E66E27D8146E0B0EE15E1450E76E7B
:1005A000010EE7CFDBFFDB5003E0010EDB500ED086
:1005B000FA0EDBCFE9FFFB0EDBCFEAFFEF500208BC
:1005C00002E1DF5002E0010E01D0000E146E020EB7
:1005D000E15C02E2E16AE552E16E1450E552E7CFD8
:1005E000D9FF1200D9CFE6FFE1CFD9FFE652300E96
:1005F000DF6EF40EDBCFE6FFF50EDBCFE6FFF60E87
:10060000DBCFE6FFF70EDBCFE6FFF80EDBCFE6FF32
:10061000F90EDBCFE6FFFA0EDBCFE6FFFB0EDBCFFA
:10062000E6FFFC0EDBCFE6FFFD0EDBCFE6FFFE0EA6
:10063000DBCFE6FFDFCFE6FF0C0EE66E09D8146EC7
:100640000D0EE15E1450E552E552E7CFD9FF1200DE
:10065000D9CFE6FFE1CFD9FF090EE126D950F40F3B
:10066000E96EFF0EDA20EA6EEE50ED1008E0F40EAF
:10067000DBCFE9FFF50EDBCFEAFFEF5001D0000E34
:10068000DF6EF30EDB38F00BDF24E76E010EE7CFF1
:10069000DBFF030EDB6AE66A020EE66EDFDCE55284
:1006A000E5527F0EE66E080EE66ED8DCE552E552A6
:1006B000800EE66E140EE66ED1DCE552E552FB0EBE
:1006C000DBCFE6FFFC0EDBCFE6FFFA0EDBCFE6FF6B
:1006D000120EE66E84DDE552E552E552E552010E5A
:1006E000DBCFE6FF1A0EE66EB9DCE552E552FE0EF0
:1006F000DBCFE6FF020EE66EB1DCE552E552FE0E00
:10070000DB500C0807E1800EE66E1A0EE66E04DE82
:10071000E552E552240EE66EE66AE9EC18F0E55281
:10072000E5520001D1511AE1080EE66EAFDCE55248
:10073000E76E020EE7CFDBFFFD0EDBCFE6FF020E1A
:10074000DB50E552E71406E0010EF36E030EF3CF23
:10075000DBFF04D0020EDBA0E4D703D0030EDB5096
:1007600002E1030EFCD00C0EE66E90DCE552E76E63
:10077000040EE7CFDBFFDB50130B02E0010EEFD0DE
:10078000050EDB6AD950F80FE96EFF0EDA20EA6E2B
:10079000EE50ED1056E0D950F60FE96EFF0EDA205C
:1007A000EA6EEE50ED104DE0140EE66E6FDCE55291
:1007B000E76E020EE7CFDBFFDBCF14F0F60EDBCFE8
:1007C000E9FFF70EDBCFEAFFEF50D880145402E2C6
:1007D000040EC5D0F60EDBCFE9FFF70EDBCFEAFF44
:1007E000020EDBCFEFFFF30EDBCFE6FFF80EDBCF21
:1007F000E6FFF90EDBCFE6FF020EDBCFE6FF120EBF
:10080000E66E5DDC146E050EE15E1450180EE66EA9
:100810003DDCE552070BE76E050EE7CFDBFFD95055
:10082000F40FE96EFF0EDA20EA6EEE50ED1009E0EB
:10083000F40EDBCFE9FFF50EDBCFEAFF050EDBCFD1
:10084000EFFF040EDBA602D0020E89D0D950F80FBC
:10085000E96EFF0EDA20EA6EEE50ED1001E17ED077
:10086000D950F60FE96EFF0EDA20EA6EEE50ED1069
:1008700075E0F20EDB5072E0F60EDBCFE9FFF70E0B
:10088000DBCFEAFFEF0406E1050EDB50040802E1CE
:10089000FF0E65D0F60EDBCFE9FFF70EDBCFEAFFE8
:1008A000EFCF14F0020E145C57E3050EDB5054E159
:1008B000D950060FE66E000EDA20E66EF60EDBCF9C
:1008C000E9FFF70EDBCFEAFFEF50FE0FE66EF80E02
:1008D000DBCFE6FFF90EDBCFE6FFADDC146E050ED5
:1008E000E15E1450E76E080EE7CFDBFFDB5003E05C
:1008F000080EDB5034D0F60EDBCFE9FFF70EDBCF6E
:10090000EAFFEF50FE0FE76EF80EDBCFE9FFF90EBE
:10091000DBCFEAFFE750E926000EEA22EFCF14F022
:10092000060EDB50145C18E1F60EDBCFE9FFF70E84
:10093000DBCFEAFFEF04E76EF80EDBCFE9FFF90E3D
:10094000DBCFEAFFE750E926000EEA22EFCF15F0F1
:10095000070EDB50155C02E0070E01D0000E146E8E
:10096000090EE15C02E2E16AE552E16E1450E552E3
:10097000E7CFD9FF1200D9CFE6FFE1CFD9FF200E94
:10098000E126010EF36E030EF3CFDBFFFC0EDB500E
:10099000500802E2060EACD3800EE66E1C0EE66E28
:1009A000D5DCE552E552DF6ADF5001E092D3030E59
:1009B000DB50030A3CE0010A1AE0030A01E044D2DA
:1009C000930EF36E0D0EF3CFDBFF0A0EDB6A0B0EF8
:1009D000DB6AFC0EDB5023E0FD0EDBCFE9FFFE0EF1
:1009E000DBCFEAFFEF5004081AE2010E1BD0950E90
:1009F000F36E0D0EF3CFDBFF030EF36E0A0EF3CF93
:100A0000DBFF0B0EDB6AFC0EDB5009E0FD0EDBCFDB
:100A1000E9FFFE0EDBCFEAFFEF50070802E3000E0E
:100A200001D0010EE76E020EE7CFDBFF0ED0970E6E
:100A3000F36E0D0EF3CFDBFF060EF36E0A0EF3CF4F
:100A4000DBFF0B0EDB6A020EDB6AFC0EDB50166E60
:100A5000176A080E086E096A0A0EDBCF0DF00B0E3E
:100A6000DBCF0EF0C9EC20F00650165C146E075078
:100A70001758156E0C0E14C0DBFF000EF36E0C0E33
:100A8000DBCFF4FFF350F45C02E20C0EDB6A020EE3
:100A9000F36E080EF3CFDBFF090EDB6A020EDB50AC
:100AA00016E0D9500D0F146EDACF15F0080EDBCF1B
:100AB00016F0DB2A090EDBCF17F001E3DB2A145016
:100AC0001624E96E15501720EA6E880EEF6E0C0E94
:100AD000DB50070B02E0010E01D0000E146E0C0E6D
:100AE000DB50F80BE842E842E8421424E76E1C0EA3
:100AF000E7CFDBFFDB506BE0020EDB5002E0030EC2
:100B000001D0040EE76E1D0EE7CFDBFF1C0EDBCF1E
:100B100014F01D0EDB50D880145406E21D0EDB507D
:100B2000E76E1C0EE7CFDBFF050EDB6A060EDB6A05
:100B3000050EDBCF14F0060EDBCF15F01C0EDB50DC
:100B4000000115AE02D0D89003D0145C000E1558E9
:100B50003EE2FD0EDBCFE9FFFE0EDBCFEAFFEE52F9
:100B6000E9CF18F0EACF19F0050EDBCF1CF0060E26
:100B7000DBCF1DF00A0EDB501C241A6E0B0EDB506F
:100B80001D201B6EE9501A24E96EEA501B20EA6E04
:100B9000EF50E66ED9500D0F146EDACF15F0080E37
:100BA000DBCF16F0DB2A090EDBCF17F001E3DB2ADF
:100BB00014501624E96E15501720EA6EE552E750DE
:100BC000EF6E050EDB2A060EB3E3DB2AB1D7020E69
:100BD000DB500AE0080E146E0C0EDBCFE7FF14505A
:100BE000E7260C0EE7CFDBFF010EDB6A010EDB50C0
:100BF00001E094D1200EF36E0C0EDBCFF4FFF35026
:100C0000F45C4DE3700EF36E0E0EF3CFDBFF120EAD
:100C1000DBCFE6FF110EDBCFE6FF100EDBCFE6FFEA
:100C20000F0EDB50E552E718E552E718E552E718DA
:100C3000E76E130EE7CFDBFFD950140FE66E000E00
:100C4000DA20E66E070EE66ED9500D0FE66E000E46
:100C5000DA20E66E1BEC01F0146E050EE15E145016
:100C6000E76E040EE7CFDBFFDB5001E0E5D1180EA5
:100C7000DB6A090EF36E160EF3CFDBFFD950130FAC
:100C8000146EDACF15F0190E14C0DBFF1A0EDACF8E
:100C9000DBFF030EF36E1B0EF3CFDBFF71D00C0EE8
:100CA000DB50070BE76E180EE7CFDBFF0C0EDB50B7
:100CB000F80BE842E842E842E66ED950050FE96ECB
:100CC000DACFEAFFE552E750EE6EED6A050EDBCFB4
:100CD00014F0060EDBCF15F0020E1426000E1522BE
:100CE000080E14C0DBFF090E15C0DBFF080EDBCFBA
:100CF00014F0090EDBCF15F0040ED890143615361B
:100D0000E804FBE1180EDB50166E176A1450162427
:100D1000E76E0E0EE7CFDBFF180EDB5002E0010E90
:100D200001D0000E166E176A16BE1768080EDB504B
:100D30001624146E090EDB501720160E14C0DBFFAC
:100D4000D9500D0F166EDACF17F0080EDB501624AF
:100D5000146E090EDB50DA20156E190E14C0DBFF7D
:100D60001A0E15C0DBFF080EDBCF14F0090EDBCF27
:100D700015F0D8801456000E15561B0E14C0DBFF5C
:100D8000180EDB50E76E170EE7CFDBFF180EDBCF38
:100D9000E6FF170EDB38F00BE552E724E66E1A0E7D
:100DA000E66E2EEC00F0E552E552E66A170EDBCF58
:100DB000E6FFD950180FE66E000EDA20E66ED95025
:100DC0001B0FE66E000EDA20E66E190EDBCFE6FF93
:100DD0001A0EDBCFE6FF160EDBCFE6FFD9500D0F64
:100DE000E66E000EDA20E66EF2EC02F0146E0B0EE8
:100DF000E15E1450E76E040EE7CFDBFFDB50020824
:100E000001E076D01C0EE66E46EC00F0E552E76E8F
:100E10001E0EE7CFDBFFDBAA02D0020E69D1DB504A
:100E20001F0BE76E1F0EE7CFDBFFDB5005E1200E47
:100E3000F36E1F0EF3CFDBFF1F0EDBCF14F00C0E93
:100E4000DB50D880145402E3050E52D11F0EDB5044
:100E5000E76E0C0EE7CFDBFFDB50070BE66ED950D9
:100E6000050FE96EDACFEAFFE552E750EE6EED6A64
:100E70000C0EDB04070BE76E070EE7CFDBFFD95044
:100E8000050FE96EDACFEAFFEE50ED1002E0010E39
:100E900001D0000E146E0C0EDB50F80BE842E84255
:100EA000E842010F1424E66ED950080FE96EDACF3C
:100EB000EAFFE552E750EE6EED6A010EF36E070EA3
:100EC000DB5004E0D890F336E806FCE1F350166EF0
:100ED000D9500D0F146EDACF15F0080EDB50142424
:100EE000E96E090EDB50DA20EA6EF350EF127ED67F
:100EF000040EDB5001E0A0D0200EF36E0C0EDBCF11
:100F0000F4FFF350F45C04E3DE52010EDD6E6ED6A6
:100F1000200EF36E0C0EF3CFDBFF68D60F0EDB5006
:100F2000880802E1030E01D0020E146E156A14BE89
:100F30001568080E14C0DBFF090E15C0DBFF0F0E8D
:100F4000DB50880802E1030E01D0040EE76E1C0E90
:100F5000E7CFDBFF050EDB6A060EDB6A050EDBCF93
:100F600014F0060EDBCF15F01C0EDB50000115AEA1
:100F700002D0D89003D0145C000E15583AE2D95034
:100F80000D0F1A6EDACF1BF0080EDBCF1CF0DB2A38
:100F9000090EDBCF1DF001E3DB2A1A501C24E96E99
:100FA0001B501D20EA6EEF50E66EFD0EDBCFE9FF11
:100FB000FE0EDBCFEAFFEE52050EDBCF18F0060E79
:100FC000DBCF19F00A0EDB501824166E0B0EDB5027
:100FD0001920176EE9501624E96EEA501720EA6EC0
:100FE000E552E750EF6E050EDB2A060EB7E3DB2A6B
:100FF000B5D71B0EDB50030803E1180EDB5002E0EF
:10100000010E76D0D9500F0FE66E000EDA20E66E94
:10101000010EE66E190EDBCFE6FF1A0EDBCFE6FF00
:101020001BEC01F0146E050EE15E1450E76E040E29
:10103000E7CFDBFFDB5003E0040EDB5059D0010E9D
:10104000E76E190EDBCFE9FF1A0EDBCFEAFFE750A0
:10105000E926000EEA22EF50F36E0F0EDB50F35C30
:1010600012E1020EE76E190EDBCFE9FF1A0EDBCF9D
:10107000EAFFE750E926000EEA22EF50F36E100E69
:10108000DB50F35C02E0070E33D0190EDBCFE9FF33
:101090001A0EDBCFEAFFEF50040B03E0030EDB2A4E
:1010A00083D4010EDF6E190EDBCFE9FF1A0EDBCF02
:1010B000EAFFEF50E66EFD0EDBCFE9FFFE0EDBCF61
:1010C000EAFF0B0EE926000EEA22E552E750EF6E2A
:1010D0006BD4030EDB50030DF328E66EFD0EDBCF61
:1010E000E9FFFE0EDBCFEAFFE552E750EF6E000EA0
:1010F000146E200EE15C02E2E16AE552E16E1450EA
:10110000E552E7CFD9FF1200D9CFE6FFE1CFD9FFF3
:10111000E6526E0EE66E46EC00F0E552DF6EC70E4C
:10112000E66E3D0EE66EDAEC19F0E552E552DFCFE1
:1011300014F0156A166A176A14C0E6FF15C0E6FFB8
:1011400016C0E6FF17C0E6FF71EC1AF0E552E55253
:10115000E552E552DF50120A18E0800A12E0030A55
:101160000CE0010A06E0180A14E1BC0EE66E3D0E22
:1011700013D0B40EE66E3D0E0FD0AC0EE66E3D0EF3
:101180000BD0A40EE66E3D0E07D0900EE66E3D0E1F
:1011900003D0830EE66E3D0EE66EDAEC19F0E552F2
:1011A000E552DF5003E0FF0EDF5C08E1400EE66E23
:1011B0003D0EE66EDAEC19F0E552E552E552E552E5
:1011C000E7CFD9FF1200D9CFE6FFE1CFD9FF090E53
:1011D000E126FD0EDBCFE6FFFE0EDBCFE6FF6AD891
:1011E000E552E552FD0EDBCFE9FFFE0EDBCFEAFF55
:1011F0000B0EE926000EEA22EF50E66E77D9E55293
:10120000E76E080EE7CFDBFFDB5049E0FF0A47E05F
:10121000FE0A3DE0090A3BE00A0A39E0050A37E028
:101220000E0A35E00F0A2FE0050A04E0070A02E083
:10123000010A35E1060EDB6A070EDB6A060EDBCF1C
:1012400014F0070EDBCF15F0D890155004E6060E0B
:10125000145C000E155813E2D9CF14F0DACF15F054
:10126000060EDB50D924E96E070EDB50DA20EA6E59
:10127000EF68060EDB2A070EE1E3DB2ADFD72C0E30
:10128000E66E3D0E07D0180EE66E3D0E03D0DC0E66
:10129000E66E3C0EE66EDAEC19F0E552E55258D9EE
:1012A000090EE15C02E2E16AE552E16EE552E7CF48
:1012B000D9FF1200D9CFE6FFE1CFD9FF060EE12614
:1012C000D10EE66E3C0EE66EDAEC19F0E552E55210
:1012D000DE6ADD6ADECF14F0DDCF15F0FD0EDBCF68
:1012E000E9FFFE0EDBCFEAFFEF50000115AE02D0A2
:1012F000D89003D0145C000E155841E2CF0EE66E74
:101300003C0EE66EDAEC19F0E552E552FD0EDBCF4D
:10131000E9FFFE0EDBCFEAFFEE52E9CF14F0EACF91
:1013200015F0DE50E924E96EDD50EA20EA6EEF5058
:10133000E66EE66ACA0E166E3C0E176E186A16C086
:10134000E6FFE66E18C0E6FFD950030FE66E000E0A
:10135000DA20E66EF6EC20F0196E070EE15E195009
:10136000D950030FE66E000EDA20E66EBAEC19F0E3
:10137000E552E552DF2A010EADE3DB2AABD7BE0E04
:10138000E66E3C0EE66EDAEC19F0E552E552FD0E23
:10139000DBCFE9FFFE0EDBCFEAFF0B0EE926000EE6
:1013A000EA22EF50E66EE66ACA0E146E3C0E156E27
:1013B000166A14C0E6FFE66E16C0E6FFD950030FAA
:1013C000E66E000EDA20E66EF6EC20F0176E070EE1
:1013D000E15E1750D950030FE66E000EDA20E66E7C
:1013E000BAEC19F0E552E552FD0EDBCFE9FFFE0E37
:1013F000DBCFEAFF0B0EE926000EEA22EF50E66E85
:1014000075D8E552E76E020EE7CFDBFFB10EE66E50
:101410003C0EE66EDAEC19F0E552E552020EDBCF37
:10142000E6FF17D8E552F3CF14F0F4CF15F0F3CF61
:10143000E6FFF4CFE6FFDAEC19F0E552E552060ECE
:10144000E15C02E2E16AE552E16EE552E7CFD9FFE5
:101450001200D9CFE6FFE1CFD9FFFE0EDB503CE012
:10146000FF0A36E0F60A30E0010A2AE00F0A24E01B
:10147000010A1EE0030A18E0010A12E0070A0CE064
:10148000010A06E0030A28E18D0E146E3C0E27D0F7
:10149000650E146E3C0E23D04E0E146E3C0E1FD003
:1014A000430E146E3C0E1BD0380E146E3C0E17D03B
:1014B000160E146E3C0E13D00A0E146E3C0E0FD096
:1014C000FB0E146E3B0E0BD0EC0E146E3B0E07D0D1
:1014D000C90E146E3B0E03D0BC0E146E3B0E14C02E
:1014E000F3FFF46EE552E7CFD9FF1200D9CFE6FF44
:1014F000E1CFD9FFFE0EDB9EDB50400A22E0600AFE
:101500001EE0210A1AE0110A16E0010A14E0110A8D
:1015100010E0180A0CE0100A08E0010A04E00D0AC5
:1015200012E1FF0E11D0030E0FD0040E0DD0050EE8
:101530000BD0060E09D0070E07D0090E05D0010EFC
:1015400003D0020E01D0000EE552E7CFD9FF120002
:10155000D9CFE6FFE1CFD9FF050EE126DE52500ECE
:10156000DD6E020EDB6AD950030FE66E000EDA2044
:10157000E66E020EE66ED950010FE66E000EDA201E
:10158000E66E1BEC01F0146E050EE15E1450DF6E8A
:10159000DF5002E0DF5022D0E66AE66A000EE66E17
:1015A000E66AE66EE66AE66EE66A040EE66ED95014
:1015B000010FE66E000EDA20E66EF2EC02F0146E19
:1015C0000B0EE15E1450DF6E030EDF5C02E1000ED5
:1015D00005D0DF5002E1010E01D0DF50146E050E80
:1015E000E15C02E2E16AE552E16E1450E552E7CFB8
:1015F000D9FF1200D9CFE6FFE1CFD9FF040EE126D3
:10160000020EF36EDB6EE66A240EE66E2EEC00F040
:10161000E552E552E66A260EE66E2EEC00F0E55243
:10162000E552260EE66E480EE66E2EEC00F0E55210
:10163000E552D950020FE66E000EDA20E66ED9CFE1
:10164000E6FFDACFE6FF55EC02F0E552E552E5524F
:10165000E552E76E030EE7CFDBFFDB5006E0030E3B
:10166000DB50020802E0000E01D0010E146E040EE1
:10167000E15C02E2E16AE552E16E1450E552E7CF27
:10168000D9FF1200D9CFE6FFE1CFD9FFE652E66AD3
:10169000000EE66E0F0EE66EBBEC04F0E552E5526E
:1016A000E552DF6EDF5002E0000E01D0010EE55280
:0816B000E552E7CFD9FF12005B
:0816B80098EC10F0FB0EDBCFF3
:1016C000F3FFDB06F35000090AE0E6EC10F0FA0E37
:1016D00051EC11F0F3E1151CF1E1010E01D0000E07
:1016E000C7EF10F098EC10F03B0EE12402E3E16844
:1016F000E652E16E010EDB6A020EDB6AF90EDBCF09
:10170000F6FFFA0EDBCFF7FFFB0EDBCFF8FF08008A
:10171000F550DF6EDF5002E1EBEF0FF0250EDF5CDE
:1017200002E0DEEF0FF0030EDB6A040EDB6A050E4B
:10173000DB6A060EDB6A070EDB6A00EC10F02D0E8A
:10174000DF5C0CE02B0EDF5C09E0200EDF5C06E0C6
:10175000230EDF5C03E0300EDF5C1AE1DF50300A5D
:1017600014E0130A0FE0030A0AE00B0A05E0060A78
:10177000E4E1030EDB80E1D7030EDB82DED7030E4C
:10178000DB84DBD7030EDB86D8D7030EDB88D5D707
:101790002A0EDF5C1BE1FCEC0FF04AEC10F010E0CD
:1017A000030EDB8008680968130EDBCF0DF0140E02
:1017B000DBCF0EF0C9EC20F0040E06C0DBFF03D037
:1017C000130E33EC10F000EC10F00BD0090EDB6AB6
:1017D000A1EC10F003E015EC11F0FAD7090E33EC90
:1017E00010F0030EDBB0DB982E0EDF5C1BE100EC8B
:1017F00010F02A0EDF5C0BE1FCEC0FF04AEC10F06D
:1018000003E1130E85EC10F000EC10F00BD0090E84
:10181000DB6AA1EC10F003E015EC11F0FAD7090E29
:1018200085EC10F0680EDF5C07E100EC10F0680E4C
:10183000DF5C1DE1030E18D0740EDF5C17E07A0E3A
:10184000DF5C14E0480EDF5C06E0540EDF5C03E072
:101850005A0EDF5C02E1020E07D06C0EDF5C03E083
:101860006A0EDF5C04E1010ED8EC10F0C9DBDF503A
:101870006E0A01E17FD31E0A01E192D1200A01E143
:101880008FD13F0A01E149D11A0A01E146D10D0A7F
:1018900001E143D1200A01E140D13A0A01E13DD101
:1018A000200A01E13AD1260A01E135D10D0A01E110
:1018B00032D11A0A01E1D9D0200A4AE0300A1FE0E9
:1018C000460A0EE0250A01E083D3D950F90FE96EEC
:1018D000FF0EDA20EA6E010EEE5E000EEE5AEE5AB0
:1018E000E6EC10F0250EE66E95DB03E1151C01E138
:1018F00069D3E2EC10F001E26BD3DB2A69D3080E66
:10190000DB6A040EDB50010806E2040EDB04AAECDD
:1019100010F0DB508BDB080EDB5009E0030EDB50D0
:10192000010B05E172DB01E04DD3080EDB6A64DBDD
:10193000EFCFDFFF5AEC11F003E1151C01E142D3B8
:10194000E2EC10F001E3DB2A60DB01E141D33AD3A2
:10195000070EDB5002080FE126EC11F0030EEDEC50
:1019600010F00E0EEECFDBFF0F0EEECFDBFF100EF2
:10197000EECFDBFF20D0F70EDBCF17F0F80EDBCF7A
:1019800018F0020E175E000E185AF70E17C0DBFF94
:10199000F80E18C0DBFF17C0E9FF18C0EAFFDDEC46
:1019A00010F0166A0E0E14C0DBFF0F0E15C0DBFF21
:1019B000100E16C0DBFF0E0EDBCFE6FF0F0EDBCFE7
:1019C000E6FF100EDBCFE6FF67EC22F0E552E552B2
:1019D000E552130E07C0DBFF140E08C0DBFF060E36
:1019E000DB5005E0130E21EC11F001E26ADB45EC5F
:1019F00011F002E2130E37DB08EC11F006E0040EE2
:101A000021EC11F002E2050E2EDB030EDBB005D057
:101A1000FCDA01E0D7D2080EDB6A090EDB6A0E0E93
:101A2000DBCFF6FF0F0EDBCFF7FF100EDBCFF8FF9B
:101A30000800F550DF6EDF5014E04BEC11F011E2BE
:101A40005AEC11F003E1151C01E1BCD2BBDB01E350
:101A5000DB2A090EDB2AD9500E0FE96E000ECBDB14
:101A6000E7D7D3DA01E1B4D2ADD2C6DA110EEECFA8
:101A7000DBFF120EEDCFDBFF110EDBCFE6FF120E08
:101A8000DBCFE6FF59EC22F0E552E552130EF3CF1F
:101A9000DBFF140EF4CFDBFF060EDB5004E0130E69
:101AA000D0DB01E20EDB45EC11F002E2130EDBDAD3
:101AB000AFDB05E0040EC5DB02E2050ED4DA030E4F
:101AC000DBB005D0A2DA01E07DD2080EDB6A090E98
:101AD000DB6A110EDBCFE9FF120EDBCFEAFFEFCF9F
:101AE000DFFFDF5014E0D7DB12E2E4DB03E1151C7B
:101AF00001E168D267DB01E3DB2A090EDB2A110E64
:101B0000DB2ADBCFE9FF120EE8E3DB2AE6D77DDA3A
:101B100001E15ED257D2030EDB8E070EDB0410E12B
:101B200095DB040E5ADB0A0EEECFDBFF0B0EEECF79
:101B3000DBFF0C0EEECFDBFF0D0EEECFDBFF6CD02C
:101B4000070EDB5003082CE1030EDBAE0DD0B2DA3A
:101B5000020E76DAEFCF14F0156A166A176A14AE21
:101B600039D01568166835D0F70EDBCF15F0F80EB2
:101B7000DBCF16F0020E155E000E165AF70E15C0DA
:101B8000DBFFF80E16C0DBFF15C0E9FF16C0EAFF49
:101B9000EFCF14F00A0E14C0DBFF0B0EDB6A38D057
:101BA000070EDB50020809E1030EDBAE04D059DB5F
:101BB00016AE10D00ED055DB0DD0030EDBAE12D01A
:101BC00079DA020E3DDAF9DA166A176A15AE02D032
:101BD00016681768E2DA0C0E16C0DBFF0D0E17C090
:101BE000DBFF1AD0F70EDBCF16F0F80EDBCF17F0C5
:101BF000020E165E000E175AF70E16C0DBFFF80E27
:101C000017C0DBFF16C0E9FF17C0EAFFD6DAC5DA56
:101C10000C0EDB6A0D0EDB6A060EDB5005E1010ED1
:101C2000F36E050EF3CFDBFF150EDB6A160EDB6AD3
:101C3000D950370F146E000EDA20156E390E14C00D
:101C4000DBFF3A0E15C0DBFF380EDB6A080EDB6ADD
:101C50000A0EAEDADF50780A12E0200A10E0280AF5
:101C60000CE0200A0AE03F0A06E00D0A02E0200A22
:101C700008E1020E05D0080E03D0080EDF26100E74
:101C800097DA030EDBBE02D0DB92DB94DB50800BD5
:101C900024E08ADAD890030EEB50000A08E6000E22
:101CA000EE5C000EEE58000EEE58000EEE5815E2F7
:101CB00013DA0B680C680D680E6821EC22F00A0E2E
:101CC00002C0DBFF0B0E03C0DBFF0C0E04C0DBFF0A
:101CD0000D0E05C0DBFF2D0E08D0030EDBA202D0D7
:101CE0002B0E03D0DBA408D0200EF36E170EF3CF1B
:101CF000DBFF150EDB2A02D0170EDB6A050EDB5068
:101D000003E1B7D901E189D0420E146E460E156E7B
:101D1000000E166E070EDBCF17F0186A196A1A6AE2
:101D200017C00BF018C00CF019C00DF01AC00EF05F
:101D3000D3D98CEC22F014500224F36E15500320FA
:101D4000F46E16500420F86EF4CFF7FFF3CFF6FFD1
:101D50000800090EF5CFDBFF580EDF5C0FE1610EC6
:101D6000F36E090E7BD90AE3200E146E090EDBCF49
:101D7000E7FF1450E75E090EE7CFDBFF070EDBCF6E
:101D800014F0156A166A176A0FDA14C00BF015C042
:101D90000CF016C00DF017C00EF0EECF06F0EECF2F
:101DA00007F0EECF08F0EFCF09F08CEC22F009C07D
:101DB000EDFF08C0EDFF07C0EDFF06C0EFFF390ED5
:101DC000DBCFE9FFDB063A0EDBCFEAFF01E2DB0601
:101DD000090EDBCFEFFF150EDB2A4BD995E1030E81
:101DE000DBA61DD06F0EDF5C06E1C1D918E3150E2E
:101DF000DB285BDA14D0780EDF5C09E0580EDF5C7C
:101E000006E0620EDF5C03E0420EDF5C08E1020EDA
:101E1000F36E160EF3CFDBFF02D0150EDB6A030E56
:101E2000DB50100B0EE0040EDBCF14F0050EDB5080
:101E3000D880145406E2060EDB5003E1040EDB509A
:101E400034DA95D90AE2050EDBCFE7FF150EDB5039
:101E5000E75E050EE7CFDBFF02D0050EDB6A040E5E
:101E6000DBCF14F0160E45D9D880145414E2160EA8
:101E7000DBCFE6FF150EDBCFE6FF040EDBCFE6FF80
:101E8000050EDB50E552E75CE552D880E754E55299
:101E9000D880E7545FD9030EDB50010B0BE1080E2D
:101EA000DB5008E0B2D801E08DD0080EDB50BED880
:101EB000080EDB6A170EDB5007E088D9170EF1D940
:101EC00003E1151C01E17ED0160EDB5016E07ED931
:101ED000300EE66E9FD802E1151C74E077D9DFCF93
:101EE000E6FFDFEC21F0E552E552E552F4CF15F0C4
:101EF0000001F31C02E1151C65E0050EDBCF14F0B8
:101F0000160EDB50D880145409E2050EDBCFE7FF34
:101F1000160EDB50E75E050EE7CFDBFF300EE66EF8
:101F2000050ECBD94FE1390EDB2ADBCFE9FF3A0EA4
:101F300001E3DB2ADBCFEAFF090EEFCFDBFFDB504B
:101F40000EE044D9090EADD902E1151C3BE0390E73
:101F5000DB2ADBCFE9FF3A0EEDE3DB2AEBD755D8DE
:101F600031E1160EDBCFE6FF080EC3D8E552E724B9
:101F70005DD82ED0070EDB50030A1CE0010A14E0E6
:101F8000030A07E07BD9DBCFEEFF020EDBCFEDFFCC
:101F90001FD0F5D8196A17AE02D0186819682CD866
:101FA000BCD819C0EEFF14D0EAD817BE186824D8E0
:101FB000B4D80ED063D9DBCFEFFF0AD07BD905E1CF
:101FC000151C03E1F368F46810D0FCD801E3DB2AA8
:101FD00079D987EF0BF0010EDBCF14F0020EDBCFC7
:101FE00015F014C0F3FF15C0F4FF3B0EE15C02E2F4
:101FF000E16AE552E16ECBD029D9020EEDEF10F087
:1020000061D90800F550DF6E1200200EE66E080E52
:102010005DEF11F0DFEC21F0E552E552E552F3CF30
:1020200014F0F4CF15F00001F31C1200146E156AC1
:10203000D950010F4DD91450EE261550ED22120043
:10204000185E000E195AF70E18C0DBFFF80E19C003
:10205000DBFF18C0E9FF19C0EAFF1200DBCFF4FF75
:10206000F350F45C1200DB50E76E040EE7CFDBFFA9
:1020700012000A0EDBCF14F00B0EDBCF15F00C0EA6
:10208000DBCF16F00D0EDBCF17F014501510161025
:1020900017101200130EEECFDBFF140EEDCFDBFF97
:1020A000130EDBCF14F0140EDBCF15F00001800E01
:1020B00015141200F70EDBCF18F0F80EDBCF19F075
:1020C0001200050EDB50E66ED950130F01D9E55210
:1020D000E750EE6EED6A12000A0EDBCF06F00B0E33
:1020E000DBCF07F00C0EDBCF08F00D0EDBCF09F0D5
:1020F0001200DBCFE6FF150EDBCFE6FF050EDB504F
:10210000E552E724E552E7241200DB50CED8010E59
:10211000F36E060EF3CFDBFF1200EE50EFCFEAFFB7
:10212000E96E16C0EEFF17C0EEFF18C0EEFF1200FA
:10213000D9CFE6FFDACFE6FFE1CFD9FFE2CFDAFF72
:102140001200DFCFE6FFE66AE3EC22F0E552E5524B
:10215000F3501200E76E080EE7CFDBFF1200EECF60
:1021600014F0EECF15F0EFCF16F0176A1200050E3F
:10217000DBCF14F0150EDB50D88014541200010E82
:10218000DBCF16F0020EDBCF17F0186A1200E55213
:10219000E5CFDAFFE7CFD9FF12000A0E14C0DBFF4C
:1021A0000B0E15C0DBFF1200D9500A0F68EF11F0BB
:1021B000F36E070EF3CFDBFF1200EECF14F0EFCF7C
:1021C00015F01200010EDB2A020E1200FC0EDBCF0E
:1021D000E6FFFD0EDBCFE6FF1200145E000E155A7F
:1021E000F70E14C0DBFFF80E15C0DBFF14C0E9FFCB
:1021F00015C0EAFF1200DA20EA6EEF2AEECFF6FFF2
:10220000000EEF22EECFF7FFEF22EECFF8FF120025
:10221000040EDBCFE6FF130EDB50E552E75C9ADFDE
:10222000DB5004DF060EDB501200090EDB500A0DF6
:10223000F350DF24D00FE76E090EE7CFDBFF00EF8E
:1022400010F0DB50F36E050E2EEF10F0F70EDBCF23
:1022500014F0F80EDBCF15F01200DFCFE6FF0AEF27
:1022600010F028DF030EECDEAFEF10F05CEC0BF0AB
:10227000E552E552E552E55200091200BDDEEE508E
:10228000EFCFEAFFE96E010E1200130EDB50F36E82
:10229000040E2EEF10F0040EDB50F36E090E2EEF3D
:1022A00010F0DBCFE6FF0AEF10F0E76E050EE7CF88
:1022B000DBFF12008BDF2DEF11F0DBCFE6FF86DFB7
:1022C00036EF11F0D950F90FE96EFF0EFBEF10F069
:0A22D000E96E000EDA20EA6E12003B
:0622DA00D9CFE6FFE1CFC1
:1022E000D9FF040EE126DE6ADD6ADECF14F0DDCF11
:1022F00015F0FE0EDB50000115AE02D0D89003D0D1
:10230000145C000E15581DE2020EDB6A030EDB6A38
:10231000020EDBCF14F0030EDBCF15F0D890155072
:1023200004E6010E145C000E155806E2020EDB2ACC
:10233000030EEEE3DB2AECD7DF2A010ED6E3DB2A1D
:10234000D4D7040EE15C02E2E16AE552E16EE552A7
:10235000E7CFD9FF1200D9CFE6FFE1CFD9FF040EB6
:10236000E126DE6ADD6ADECF14F0DDCF15F0166AF5
:10237000176A15AE02D016681768D950FB0FE96EC0
:10238000FF0EDA20EA6EEE50145CEE501558EE5057
:102390001658EE5017581DE2020EDB6A030EDB6A78
:1023A000020EDBCF14F0030EDBCF15F0D8901550E2
:1023B00004E6A00E145C000E155806E2020EDB2A9D
:1023C000030EEEE3DB2AECD7DF2A010ECCE3DB2A97
:1023D000CAD7040EE15C02E2E16AE552E16EE55221
:1023E000E7CFD9FF1200D9CFE6FFE1CFD9FF0F0E1B
:1023F0008116FE0EDB50F00B81128186010EE66E17
:10240000E66AE66AE66AA7DFE552E552E552E5527A
:102410008196010EE66EE66AE66AE66A9CDFE552A0
:10242000E552E552E5520F0E8116FE0EDB38F00B39
:1024300081128186010EE66EE66AE66AE66A8BDF45
:10244000E552E552E552E5528196010EE66EE66AE6
:10245000E66AE66A80DFE552E552E552E552E5526A
:10246000E7CFD9FF1200D9CFE6FFE1CFD9FFE6527F
:10247000030E9316190EE66EE66AE66AE66A6BDFED
:10248000E552E552E552E5520F0E8116F80E81161F
:102490000F0E8116300E81128186010EE66EE66AFD
:1024A000E66AE66A58DFE552E552E552E552819662
:1024B000010EE66EE66AE66AE66A4DDFE552E5522F
:1024C000E552E5520F0E8116300E81128186010E03
:1024D000E66EE66AE66AE66A3EDFE552E552E552F6
:1024E000E5528196010EE66EE66AE66AE66A33DF39
:1024F000E552E552E552E5520F0E8116300E81127B
:102500008186010EE66EE66AE66AE66A24DFE55237
:10251000E552E552E5528196010EE66EE66AE66AFC
:10252000E66A19DFE552E552E552E5520F0E8116D3
:10253000818A8186010EE66EE66AE66AE66A0BDF4C
:10254000E552E552E552E5528196010EE66EE66AE5
:10255000E66AE66A00DFE552E552E552E552280EEA
:10256000E66E41DFE5520C0EE66E3DDFE552E552C8
:10257000E552E7CFD9FF1200D9CFE6FFE1CFD9FF6F
:102580000F0E8116FE0EDB5081128186010EE66E63
:10259000A4DEE5528196010EE66E9FDEE552E5521D
:1025A000E7CFD9FF1200D9CFE6FFE1CFD9FF819461
:1025B000010EE66E92DEE552FE0EDBCFE6FFDCDFBB
:1025C000E552FE0EDB38F00BE66ED6DFE552E55243
:1025D000E7CFD9FF1200D9CFE6FFE1CFD9FF818441
:1025E000010EE66E7ADEE552FE0EDBCFE6FFC4DFBB
:1025F000E552FE0EDB38F00BE66EBEDFE55281944D
:10260000E552E7CFD9FF1200D9CFE6FFE1CFD9FFDE
:10261000FE0EDBCFE6FFDFDFE552E552E7CFD9FF65
:102620001200D9CFE6FFE1CFD9FFFD0EDBCFF6FFD9
:10263000FE0EDBCFF7FF0800F5500FE0FD0EDBCFFD
:10264000F6FFDB2AFE0EDBCFF7FF01E3DB2A0800F3
:10265000F550E66ED9DFE552E8D7E552E7CFD9FF6E
:102660001200D9CFE6FFE1CFD9FF050EE126010E1A
:10267000F36EDB6E020EDB6A030EDB6A040EDB6AAE
:10268000DF6ADFCF14F0156A14BE1568FB0EDBCFCE
:1026900016F0FC0EDBCF17F015501718E8AE02D07D
:1026A000173404D01650145C175015582DE2FD0E47
:1026B000DBCF14F0FE0EDBCF15F0166A176A15AEED
:1026C00002D016681768D950010FE96EDACFEAFF19
:1026D00014C00BF015C00CF016C00DF017C00EF0B2
:1026E000EECF06F0EECF07F0EECF08F0EFCF09F017
:1026F00021EC22F005C0EDFF04C0EDFF03C0EDFFAB
:1027000002C0EFFFDF2ABDD7010EDBCF14F0020EAF
:10271000DBCF15F0030EDBCF16F0040EDBCF17F086
:1027200014C006F015C007F016C008F017C009F075
:10273000050EE15C02E2E16AE552E16EE552E7CFA7
:10274000D9FF1200D9CFE6FFE1CFD9FF020EE12673
:10275000DF6AFB0EDBCF14F0FC0EDBCF15F0FD0EB5
:10276000DBCF16F0FE0EDBCF17F01450151016104D
:10277000171005E1300EE66E47DFE552F4D0D95070
:10278000FB0FE96EFF0EDA20EA6ED890030EEB50D5
:10279000000A08E6000EEE5C000EEE58000EEE5841
:1027A000000EEE5815E22D0EE66E2EDFE552D950E2
:1027B000FB0FE96EFF0EDA20EA6E000EEE6CEF1EE4
:1027C000EE22EF1EEE22EF1EEF22ED52ED52ED5201
:1027D000DE520A0EDD6E010EDBCF14F0000EE76E46
:1027E0001418E8AE02D0143403D0E750D880145443
:1027F00001E3B9D0010EDB04186E196A18BE19681E
:1028000018C0E6FF19C0E6FF0A0EE66EE66A29DF89
:10281000E552E552E552E55206C014F007C015F046
:1028200008C016F009C017F006C00BF007C00CF086
:1028300008C00DF009C00EF0FB0EDBCF06F0FC0E59
:10284000DBCF07F0FD0EDBCF08F0FE0EDBCF09F08B
:102850008CEC22F0065007100810091041E0010E20
:10286000DF6EDB041C6E1D6A1CBE1D681CC0E6FF0B
:102870001DC0E6FF0A0EE66EE66AF3DEE552E5529B
:10288000E552E55206C018F007C019F008C01AF06A
:1028900009C01BF006C00BF007C00CF008C00DF01B
:1028A00009C00EF0FB0EDBCF06F0FC0EDBCF07F00D
:1028B000FD0EDBCF08F0FE0EDBCF09F08CEC22F032
:1028C00006C014F007C015F008C016F009C017F0D4
:1028D000300E1426000E152216221722145003D093
:1028E000DF5004E0300EE66E8FDEE552010EDB04B1
:1028F000186E196A18BE196818C0E6FF19C0E6FFFD
:102900000A0EE66EE66AADDEE552E552E552E552A4
:1029100006C014F007C015F008C016F009C017F083
:10292000D950FB0FE96EFF0EDA20EA6E06C00BF0FD
:1029300007C00CF008C00DF009C00EF0EECF06F095
:10294000EECF07F0EECF08F0EFCF09F08CEC22F0DD
:1029500005C0EDFF04C0EDFF03C0EDFF02C0EFFFB7
:10296000010EDB0638D7020EE15C02E2E16AE552B5
:10297000E16EE552E7CFD9FF1200D9CFE6FFE1CFF4
:10298000D9FFE652FE0EDB50010A04E0010A04E121
:10299000800E01D0C00EDF6EFD0EDB50DF24DF6E37
:1029A000DFCFE6FF00DEE552E552E552E7CFD9FF83
:1029B0001200010EE66EF7DDE552E66AE66ADDDF3B
:1029C000E552E5521200D9CFE6FFE1CFD9FFFD0E67
:1029D000DBCFE6FFFE0EDBCFE6FFCFDFE552E552B1
:1029E000D950F90FE96EFF0EDA20EA6EEECFE6FF5E
:1029F000EECFE6FFEECFE6FFEFCFE6FFA3DEE55238
:102A0000E552E552E552E552E7CFD9FF1200D9CFA2
:102A1000E6FFE1CFD9FFFD0EDBCFE6FFFE0EDBCFF9
:102A2000E6FFABDFE552E552FB0EDBCFE6FFFC0E27
:102A3000DBCFE6FFF6DDE552E552E552E7CFD9FF01
:102A40001200D9CFE6FFE1CFD9FFF7C014F0F8C0EC
:102A500015F0040ED89014361536E806FBE1A90EE1
:102A60001426000E152214500001F925E96E1550A8
:102A7000FA21EA6EFE0EDBCFEFFFF92B000EFA23F0
:102A8000E552E7CFD9FF1200D9CFE6FFE1CFD9FF5A
:102A9000FE0EDB50010B0001F76FF86BFD0EDB50F3
:102AA0000F0BF96FFA6BFB0EDBCFE9FFFC0EDBCFF0
:102AB000EAFFEF500EE0FB0EDBCFE9FFDB2AFC0E56
:102AC000DBCFEAFF01E3DB2AEF50E66EBADFE55227
:102AD000EAD7E552E7CFD9FF1200D9CFE6FFE1CF21
:102AE000D9FFE652DF6ADFCF14F0100EE76E14183C
:102AF000E8AE02D0E73402D0E750145C18E2DFCF32
:102B0000E9FFEA6AE9BEEA68A90EE926000EEA22B0
:102B1000200EEF6EDFCFE9FFEA6AE9BEEA68B90E80
:102B2000E926000EEA22200EEF6EDF2ADCD7E552FE
:102B3000E552E7CFD9FF1200D9CFE6FFE1CFD9FFA9
:102B4000E652E66AE66A19DFE552E552DF6A100EE0
:102B5000DF5C0CE2DF50EA6AA90FE96E000EEA22A0
:102B6000EF50E66E51DDE552DF2AF1D7E66A010E3D
:102B7000E66E03DFE552E552DF6A100EDF5C0CE221
:102B8000DF50EA6AB90FE96E000EEA22EF50E66EF6
:102B90003BDDE552DF2AF1D7E552E552E7CFD9FF19
:102BA0001200D9CFE6FFE1CFD9FFE6520001A851CC
:102BB000010A1BE0010A32E1E66AE66ADEDEE5525E
:102BC000E552DF6A100EDF5C0CE2DF50EA6AA90F03
:102BD000E96E000EEA22EF50E66E16DDE552DF2ABE
:102BE000F1D70001010EA86F1AD0E66A010EE66E59
:102BF000C4DEE552E552DF6A100EDF5C0CE2DF5006
:102C0000EA6AB90FE96E000EEA22EF50E66EFCDCCC
:102C1000E552DF2AF1D70001A86B01D0A86BE5527D
:102C2000E552E7CFD9FF1200D9CFE6FFE1CFD9FFB8
:102C3000FE0EDB50010B0001F76FF86BFD0EDB5051
:102C40000F0BF96FFA6BF7C014F0F8C015F0040E13
:102C5000D89014361536E806FBE1A90E1426000EAE
:102C6000152214500001F925E96E1550FA21EA6E7B
:102C7000FC0EDBCFEFFFE552E7CFD9FF1200D9CF33
:102C8000E6FFE1CFD9FF0F0EE126D950F90FE96E2B
:102C9000FF0EDA20EA6EEECFE6FFEECFE6FFEECFD4
:102CA000E6FFEFCFE6FFB80E146E3B0E156E166A08
:102CB00014C0E6FFE66E16C0E6FFD9CFE6FFDACF16
:102CC000E6FFF6EC20F0176E090EE15E1750D9CF43
:102CD000E6FFDACFE6FFFD0EDBCFE6FFFE0EDBCF31
:102CE000E6FFD2DEE552E552E552E5520F0EE15C19
:102CF00002E2E16AE552E16EE552E7CFD9FF120048
:102D0000D9CFE6FFE1CFD9FFFE0EDB50010B00016A
:102D1000F76FF86BFD0EDB500F0BF96FFA6BFB0EC4
:102D2000DBCFF6FFFC0EDBCFF7FF0800F5500FE01E
:102D3000FB0EDBCFF6FFDB2AFC0EDBCFF7FF01E358
:102D4000DB2A0800F550E66E7CDEE552E8D7E55256
:062D5000E7CFD9FF1200DD
:0A2D5600D9CFE6FFE1CFD9FFD59EEB
:102D6000FD0EDBCFC9F0FE0EDBCFCAF0D59C176895
:102D70001868196AC9C01AF0CAC01BF01C6A1A5038
:102D8000175C146E1B501858156E1C501958166E8F
:102D90000C6A010E0D6E0E6A14C007F015C008F023
:102DA00016C009F09CEC20F00350D66E1768186826
:102DB000196AC9C01AF0CAC01BF01C6A1A50175C05
:102DC000146E1B501858156E1C501958166E0C6A4C
:102DD000010E0D6E0E6A14C007F015C008F016C083
:102DE00009F09CEC20F007C014F008C015F009C0F1
:102DF00016F00750D76ED59AD586F28AF294F184F0
:102E0000D58EE552E7CFD9FF1200D59E1200176884
:102E10001868196AC9C01AF0CAC01BF01C6A1A5097
:102E2000175C146E1B501858156E1C501958166EEE
:102E30000C6A010E0D6E0E6A14C007F015C008F082
:102E400016C009F09CEC20F00350D66E1768186885
:102E5000196AC9C01AF0CAC01BF01C6A1A50175C64
:102E6000146E1B501858156E1C501958166E0C6AAB
:102E7000010E0D6E0E6A14C007F015C008F016C0E2
:102E800009F09CEC20F007C014F008C015F009C050
:102E900016F00750D76ED58E1200D9CFE6FFE1CFDE
:102EA000D9FFCD90FD0EDBCFCBF0FE0EDBCFCCF00B
:102EB00017681868196ACBC01AF0CCC01BF01C6ADE
:102EC0001A50175C146E1B501858156E1C50195868
:102ED000166E0C6A010E0D6E0E6A14C007F015C056
:102EE00008F016C009F09CEC20F00750CF6E176870
:102EF0001868196ACBC01AF0CCC01BF01C6A1A50B3
:102F0000175C146E1B501858156E1C501958166E0D
:102F10000C6A010E0D6E0E6A14C007F015C008F0A1
:102F200016C009F09CEC20F003C014F004C015F0AA
:102F300005C016F00350CE6E9D809E909F90CD8E62
:102F4000CD8CCD98CD9ACD96CD92CD80E552E7CF60
:102F5000D9FF120017681868196ACBC01AF0CCC0E4
:102F60001BF01C6A1A50175C146E1B501858156E13
:102F70001C501958166E0C6A010E0D6E0E6A14C0A4
:102F800007F015C008F016C009F09CEC20F00750BF
:102F9000CF6E17681868196ACBC01AF0CCC01BF046
:102FA0001C6A1A50175C146E1B501858156E1C5072
:102FB0001958166E0C6A010E0D6E0E6A14C007F0D9
:102FC00015C008F016C009F09CEC20F003C014F006
:102FD00004C015F005C016F00350CE6ECD8012006F
:102FE000CD901200D9CFE6FFE1CFD9FFCA94CC6AC9
:102FF000FE0EDB500001CD6FCE6BCB6E9D829E929C
:103000009F92CA90CA92CA84E552E7CFD9FF1200B4
:10301000CDC0CBFFCA841200CA941200D9CFE6FFFC
:10302000E1CFD9FFB190FD0EDBCFCFF0FE0EDBCFAD
:10303000D0F017681868196ACFC01AF0D0C01BF01A
:103040001C6A1A50175C146E1B501858156E1C50D1
:103050001958166E0C6A010E0D6E0E6A14C007F038
:1030600015C008F016C009F09CEC20F00750B36EB4
:1030700017681868196ACFC01AF0D0C01BF01C6A14
:103080001A50175C146E1B501858156E1C501958A6
:10309000166E0C6A010E0D6E0E6A14C007F015C094
:1030A00008F016C009F09CEC20F003C014F004C036
:1030B00015F005C016F00350B26EA082A192A29244
:1030C000B18EB198B19AB192B180E552E7CFD9FFF4
:1030D000120017681868196ACFC01AF0D0C01BF028
:1030E0001C6A1A50175C146E1B501858156E1C5031
:1030F0001958166E0C6A010E0D6E0E6A14C007F098
:1031000015C008F016C009F09CEC20F00350B26E18
:1031100017681868196ACFC01AF0D0C01BF01C6A73
:103120001A50175C146E1B501858156E1C50195805
:10313000166E0C6A010E0D6E0E6A14C007F015C0F3
:1031400008F016C009F09CEC20F007C014F008C08D
:1031500015F009C016F00750B36EB1801200B1909F
:1031600012000001D92B000EDA23E151D95DE251A2
:10317000DA5904E3D96BDA6B010ED16F120000014A
:10318000DB2B000EDC23E351DB5DE451DC5904E36F
:10319000DB6BDC6B010ED26F12000001DD2B000E29
:1031A000DE23E551DD5DE651DE5904E3DD6BDE6BC8
:1031B000010ED36F12000001DF2B000EE023E75158
:1031C000DF5DE851E05904E3DF6BE06B010ED46F83
:1031D0001200D9CFE6FFE1CFD9FFFD0EDBCFE1F042
:1031E000FE0EDBCFE2F00001D96BDA6BD16BE5525A
:1031F000E7CFD9FF1200D9CFE6FFE1CFD9FFFD0E0F
:10320000DBCFE3F0FE0EDBCFE4F0050E0D6E0E6AB1
:10321000E3C008F0E4C009F076EC20F008C0E3F069
:1032200009C0E4F00001DB6BDC6BD26BE552E7CF49
:10323000D9FF1200D9CFE6FFE1CFD9FFFD0EDBCFDA
:10324000E7F0FE0EDBCFE8F00A0E0D6E0E6AE7C067
:1032500008F0E8C009F076EC20F008C0E7F009C0FB
:10326000E8F00001DF6BE06BD46BE552E7CFD9FFEC
:0232700012004A
:0E327200B06A810EAF6EAC8AAC94B886AC9890
:10328000AB8EAB889E9A9D8A9F9A949C948E1200D6
:10329000D9CFE6FFE1CFD9FF040EE126DE6ADD6A71
:1032A000DECF14F0DDCF15F0FD0EDBCF16F0FE0EF5
:1032B000DBCF17F015501718E8AE02D0173404D042
:1032C0001650145C175015581DE2020EDB6A030EEF
:1032D000DB6A020EDBCF14F0030EDBCF15F0D890C3
:1032E000155004E6EE0E145C000E155806E2020EB0
:1032F000DB2A030EEEE3DB2AECD7DF2A010ED0E354
:10330000DB2ACED7040EE15C02E2E16AE552E16E0F
:10331000E552E7CFD9FF1200D9CFE6FFE1CFD9FFC1
:103320009EA8FED7FE0EDB50AD6E9E98E552E7CF0D
:10333000D9FF1200D9CFE6FFE1CFD9FFFD0EDBCFD9
:10334000E9FFFE0EDBCFEAFFEF5010E0FD0EDBCF12
:10335000E9FFFE0EDBCFEAFFEF50E66EDDDFE55260
:10336000FD0EDB2AFE0EEAE3DB2AE8D7E552E7CFC3
:10337000D9FF1200D9CFE6FFE1CFD9FFFD0EDBCF99
:10338000E9FFFE0EDBCFEAFFEF5010E0FD0EDBCFD2
:10339000E9FFFE0EDBCFEAFFEF50E66EBDDFE55240
:1033A000FD0EDB2AFE0EEAE3DB2AE8D7E552E7CF83
:1033B000D9FF1200D9CFE6FFE1CFD9FFFD0EDBCF59
:1033C000F6FFFE0EDBCFF7FF0800F55015E0FD0E0F
:1033D000DBCFF6FFFE0EDBCFF7FF0800F550E66E01
:1033E0009BDFE552FD0EDBCFF6FFDB2AFE0EDBCFC7
:1033F000F7FFE4E3DB2AE2D7E552E7CFD9FF12007B
:10340000D9CFE6FFE1CFD9FF050EE126010EF36E1D
:10341000DB6E020EDB6A030EDB6A040EDB6ADF6A18
:10342000DFCF14F0156A14BE1568FB0EDBCF16F063
:10343000FC0EDBCF17F015501718E8AE02D017348A
:1034400004D01650145C175015582DE2FD0EDBCF3A
:1034500014F0FE0EDBCF15F0166A176A15AE02D017
:1034600016681768D950010FE96EDACFEAFF14C069
:103470000BF015C00CF016C00DF017C00EF0EECF1B
:1034800006F0EECF07F0EECF08F0EFCF09F021EC19
:1034900022F005C0EDFF04C0EDFF03C0EDFF02C048
:1034A000EFFFDF2ABDD7010EDBCF14F0020EDBCF1A
:1034B00015F0030EDBCF16F0040EDBCF17F014C0AF
:1034C00006F015C007F016C008F017C009F0050E89
:1034D000E15C02E2E16AE552E16EE552E7CFD9FF35
:1034E0001200D9CFE6FFE1CFD9FF020EE126DF6A55
:1034F000FB0EDBCF14F0FC0EDBCF15F0FD0EDBCFA7
:1035000016F0FE0EDBCF17F0145015101610171022
:1035100005E1300EE66E00DFE552F4D0D950FB0F26
:10352000E96EFF0EDA20EA6ED890030EEB50000A27
:1035300008E6000EEE5C000EEE58000EEE58000E8F
:10354000EE5815E22D0EE66EE7DEE552D950FB0F80
:10355000E96EFF0EDA20EA6E000EEE6CEF1EEE2230
:10356000EF1EEE22EF1EEF22ED52ED52ED52DE5233
:103570000A0EDD6E010EDBCF14F0000EE76E14189C
:10358000E8AE02D0143403D0E750D880145401E3DD
:10359000B9D0010EDB04186E196A18BE196818C07C
:1035A000E6FF19C0E6FF0A0EE66EE66A29DFE5527D
:1035B000E552E552E55206C014F007C015F008C008
:1035C00016F009C017F006C00BF007C00CF008C0D9
:1035D0000DF009C00EF0FB0EDBCF06F0FC0EDBCFCA
:1035E00007F0FD0EDBCF08F0FE0EDBCF09F08CEC10
:1035F00022F0065007100810091041E0010EDF6E9E
:10360000DB041C6E1D6A1CBE1D681CC0E6FF1DC0CD
:10361000E6FF0A0EE66EE66AF3DEE552E552E55293
:10362000E55206C018F007C019F008C01AF009C02A
:103630001BF006C00BF007C00CF008C00DF009C06D
:103640000EF0FB0EDBCF06F0FC0EDBCF07F0FD0E1D
:10365000DBCF08F0FE0EDBCF09F08CEC22F006C0C9
:1036600014F007C015F008C016F009C017F0300EAE
:103670001426000E152216221722145003D0DF50F4
:1036800004E0300EE66E48DEE552010EDB04186EF3
:10369000196A18BE196818C0E6FF19C0E6FF0A0EBD
:1036A000E66EE66AADDEE552E552E552E55206C049
:1036B00014F007C015F008C016F009C017F0D95073
:1036C000FB0FE96EFF0EDA20EA6E06C00BF007C0B2
:1036D0000CF008C00DF009C00EF0EECF06F0EECFF2
:1036E00007F0EECF08F0EFCF09F08CEC22F005C028
:1036F000EDFF04C0EDFF03C0EDFF02C0EFFF010EC0
:10370000DB0638D7020EE15C02E2E16AE552E16EC7
:0A371000E552E7CFD9FF12001200C6
:06371A000F0E946E8268A0
:103720001200D9CFE6FFE1CFD9FF040EE126DE6A11
:10373000DD6ADECF14F0DDCF15F0D890155004E629
:10374000040E145C000E155801E390D0DECFE9FFA3
:10375000DDCFEAFFA00EE926000EEA22EF1C826E02
:10376000020EDB6A030EDB6A020EDBCF14F0030EDF
:10377000DBCF15F0D890155004E6040E145C000E53
:1037800015586EE2020EDBCFE9FF030EDBCFEAFF36
:10379000A40EE926000EEA22EF5082143FE1DECFAC
:1037A00018F0DDCF19F0D89018361936D8901836A1
:1037B0001936020EDB501824E96E030EDB50192077
:1037C000EA6ED890E936EA36800EE926000EEA2243
:1037D000EECF16F0EFCF17F0010E1626000E1722CF
:1037E000DECF14F0DDCF15F0D89014361536D89012
:1037F00014361536020EDB501424E96E030EDB502E
:103800001520EA6ED890E936EA36800EE926000ED9
:10381000EA2216C0EEFF17C0EDFF1BD0DECF14F07A
:10382000DDCF15F0D89014361536D89014361536ED
:10383000020EDB501424E96E030EDB501520EA6EF5
:10384000D890E936EA36800EE926000EEA22EE6AC2
:10385000ED6A020EDB2A030E01E286D7DB2A84D74B
:10386000DF2A010E01E265D7DB2A63D7040EE15C93
:1038700002E2E16AE552E16EE552E7CFD9FF1200BC
:10388000D9CFE6FFE1CFD9FF040EE126DE6ADD6A7B
:10389000DECF14F0DDCF15F0D890155004E6040EFD
:1038A000145C000E155801E3A3D0D9CFE9FFDACF9D
:1038B000EAFFEE50ED1001E195D0DECFE9FFDDCF5C
:1038C000EAFFA00EE926000EEA22EF1C826E020E2D
:1038D000DB6A030EDB6A020EDBCF14F0030EDBCFD4
:1038E00015F0D890155004E6040E145C000E15581F
:1038F00001E378D0D950020FE96EDACFEAFF030E68
:10390000EE1801E1ED5067E0020EDBCFE9FF030E98
:10391000DBCFEAFFA40EE926000EEA22EF50821464
:103920003FE1DECF18F0DDCF19F0D8901836193608
:10393000D89018361936020EDB501824E96E030EA3
:10394000DB501920EA6ED890E936EA36800EE92677
:10395000000EEA22EECF16F0EFCF17F0010E16267A
:10396000000E1722DECF14F0DDCF15F0D8901436FC
:103970001536D89014361536020EDB501424E96E35
:10398000030EDB501520EA6ED890E936EA36800E39
:10399000E926000EEA2216C0EEFF17C0EDFF1BD08D
:1039A000DECF14F0DDCF15F0D89014361536D89050
:1039B00014361536020EDB501424E96E030EDB506C
:1039C0001520EA6ED890E936EA36800EE926000E18
:1039D000EA22EE6AED6A020EDB2A030E01E27BD7D1
:1039E000DB2A79D7DF2A010E01E252D7DB2A50D732
:1039F000040EE15C02E2E16AE552E16EE552E7CFD6
:103A0000D9FF1200D9CFE6FFE1CFD9FF040EE1269E
:103A1000DE6ADD6ADECF14F0DDCF15F0FD0EDBCF00
:103A200016F0FE0EDBCF17F015501718E8AE02D0D7
:103A3000173404D01650145C175015581DE2020EAE
:103A4000DB6A030EDB6A020EDBCF14F0030EDBCF62
:103A500015F0D890155004E6EE0E145C000E1558C3
:103A600006E2020EDB2A030EEEE3DB2AECD7DF2AA6
:103A7000010ED0E3DB2ACED7040EE15C02E2E16A5C
:103A8000E552E16EE552E7CFD9FF1200D9CFE6FF4C
:103A9000E1CFD9FF040EE126DE6ADD6ADECF14F045
:103AA000DDCF15F0D890155004E6040E145C000E1E
:103AB000155875E2DECFE9FFDDCFEAFFA00EE9265B
:103AC000000EEA22EF1C826E020EDB6A030EDB6A36
:103AD000020EDBCF14F0030EDBCF15F0D89015509B
:103AE00004E6040E145C000E15584AE2DECF14F012
:103AF000DDCF15F0D89014361536D890143615361B
:103B0000020EDB501424E96E030EDB501520EA6E22
:103B1000D890E936EA36800EE926000EEA22EE6AEF
:103B2000ED6A020EDBCFE9FF030EDBCFEAFFA40E46
:103B3000E926000EEA22EF5082141CE1DECF14F0D9
:103B4000DDCF15F0D89014361536D89014361536CA
:103B5000020EDB501424E96E030EDB501520EA6ED2
:103B6000D890E936EA36800EE926000EEA22010EE8
:103B7000EE6EED6A020EDB2A030EAAE3DB2AA8D75B
:103B80008250816EE80EE66E030EE66E3BDFE55274
:103B9000E552DF2A010E01E281D7DB2A7FD7040E2E
:103BA000E15C02E2E16AE552E16EE552E7CFD9FF5E
:023BB000120001
:0E3BB20048454C4C4F00256C6400556E6B6E00
:103BC0006F776E20747970650053414B20696E6485
:103BD00069636174657320554944206973206E6F71
:103BE0007420636F6D706C6574652E004D4946419D
:103BF000524520544E5033585858004D4946415272
:103C0000452044455346697265004D494641524539
:103C100020506C7573004D494641524520556C74D7
:103C200072616C69676874206F7220556C74726180
:103C30006C696768742043004D4946415245203401
:103C40004B42004D494641524520314B42004D49BF
:103C500046415245204D696E692C20333230206236
:103C600079746573005049434320636F6D706C69CC
:103C7000616E7420776974682049534F2F4945431A
:103C800020313830393220284E46432900504943EC
:103C90004320636F6D706C69616E7420776974681E
:103CA0002049534F2F4945432031343434332D3488
:103CB000000A5049434320747970653A20000A4352
:103CC0006172642053414B3A2000252E3258002067
:103CD000000A43617264205549443A0044756D708E
:103CE000696E67206D656D6F727920636F6E7465A4
:103CF0006E7473206E6F7420696D706C656D656E87
:103D000074656420666F7220746861742050494342
:103D10004320747970652E00504943435F545950D5
:103D2000455F4D49464152455F554C00504943431C
:103D30005F545950455F4D49464152455F344B00F1
:103D40005741524E494E473A20436F6D6D756E692B
:103D5000636174696F6E206661696C7572652C2091
:103D6000697320746865204D4652433532322070A5
:103D7000726F7065726C7920636F6E6E65637465C7
:103D8000643F00203D2028756E6B6E6F776E2900B2
:103D9000203D20636F756E7465726665697420637B
:103DA00068697000203D2076322E3000203D20765C
:103DB000312E3000203D2076302E3000203D20284E
:103DC000636C6F6E6529000A4669726D7761726572
:0A3DD0002056657273696F6E3A00A9
:063DDA00F28ED08EF28C87
:103DE0001200F19CF292F2881200D8CFE4FFE0CFEB
:103DF000E4FFE46EDACFE4FFE2CFDAFFE9CFE4FFDD
:103E0000EACFE4FFF6CFE4FFF7CFE4FFF5CFE4FF1E
:103E1000F3CFE4FFF4CFE4FFFACFE4FF00EE00F0CD
:103E2000140EE80403E3EECFE4FFFBD700EE14F03A
:103E30000A0EE80403E3EECFE4FFFBD7E652F2A458
:103E400007D005EC17F0F29407EC17F0B1EC18F07E
:103E50009EA007D0F0EC17F09E90AAEC17F0BFECF4
:103E600018F0A1A207D0AFEC18F0A19269EC18F0FD
:103E7000DBEC18F0F2B2F2929EBA9E9AE55200EE96
:103E80001DF00A0EE80403E3E5CFEDFFFBD700EEDB
:103E900013F0140EE80403E3E5CFEDFFFBD7E5CF05
:103EA000FAFFE5CFF4FFE5CFF3FFE5CFF5FFE5CF70
:103EB000F7FFE5CFF6FFE5CFEAFFE5CFE9FFE5CF76
:103EC000DAFFE550E5CFE0FFE5CFD8FF1000DACF0D
:103ED000E4FFE2CFDAFFE9CFE4FFEACFE4FFF6CF79
:103EE000E4FFF7CFE4FFF5CFE4FFF3CFE4FFF4CF37
:103EF000E4FFFACFE4FF00EE00F0140EE80403E361
:103F0000EECFE4FFFBD700EE14F00A0EE80403E363
:103F1000EECFE4FFFBD7E652F2A407D005EC17F092
:103F2000F29407EC17F0B1EC18F09EA007D0F0EC7B
:103F300017F09E90AAEC17F0BFEC18F0A1A207D0E2
:103F4000AFEC18F0A19269EC18F0DBEC18F0F2B2CB
:103F5000F2929EAA03D09E9A8CEC1BF0E55200EEE2
:103F60001DF00A0EE80403E3E5CFEDFFFBD700EEFA
:103F700013F0140EE80403E3E5CFEDFFFBD7E5CF24
:103F8000FAFFE5CFF4FFE5CFF3FFE5CFF5FFE5CF8F
:103F9000F7FFE5CFF6FFE5CFEAFFE5CFE9FFE5CF95
:043FA000DAFF110033
:0C3FA400D9CFE6FFE1CFD9FF020EE126E5
:103FB000DE6ADD6A74D86DEC15F0B20EE66E3B0E6B
:103FC000E66EE66AE66A80EC16F0E552E552E552E6
:103FD000E5529CEC15F0E80EE66E030EE66E1BD87B
:103FE000E552E55284EC08F00001D451FDE0D46BB9
:103FF000FAEC0AF000090CE042EC0BF0000908E0D2
:10400000000EE66E0F0EE66EE3EC08F0E552E552A8
:104010009CEC15F0E9D7D9CFE6FFE1CFD9FF040E2C
:10402000E126DE6ADD6ADECF14F0DDCF15F0FD0E8D
:10403000DBCF16F0FE0EDBCF17F015501718E8AEE9
:1040400002D0173404D01650145C175015581DE2D6
:10405000020EDB6A030EDB6A020EDBCF14F0030EE6
:10406000DBCF15F0D890155004E6A00E145C000EBE
:10407000155806E2020EDB2A030EEEE3DB2AECD72C
:10408000DF2A010ED0E3DB2ACED7040EE15C02E288
:10409000E16AE552E16EE552E7CFD9FF1200936A7B
:1040A00033EC12F0EDEC1EF0E80EE66E030EE66E59
:1040B000B2DFE552E552570EE66E120EE66EABEC3D
:1040C00016F0E552E552660EE66EB70EE66E0EECA1
:1040D00018F0E552E552320EE66EE66A1AEC19F077
:0C40E000E552E55239EC19F009EF02F04E
:0440EC00006A0EAEAA
:1040F0007FEF20F00D6C0E1EE86A0E22001E09AE46
:1041000087EF20F0086C091EE86A0922001ECDEC3A
:1041100022F009BE97EF20F000AE000C086C091EDB
:10412000E86A0922046C051EE86A0522000C00BE3C
:104130008EEF20F00188FF0C006A0EAEA7EF20F092
:104140000C6C0D1E0E1EE86A0D220E22001E09AE1A
:10415000B1EF20F0076C081E091EE86A0822092248
:10416000001EB0EC22F009BEC4EF20F000AE000C3F
:10417000076C081E091EE86A08220922036C041E47
:10418000051E04220522000C00BEB8EF20F00188B5
:10419000FF0C09C013F008C012F008500D02F4CF54
:1041A00007F0F3CF06F009500E02F4CF09F0F3CF79
:1041B00008F00D02F3500726F4500822E86A09229D
:1041C00012500E02F3500726F4500822E86A092222
:1041D0000EAEEFEF20F01250085E1350095A13AEE6
:0C41E000000C0D50085E0E50095A000C37
:0441EC00D9CFE6FF42
:1041F000DACFE6FFE1CFD9FFE2CFDAFFE652E652AF
:10420000E652E652D950F90F146EFF0EDA20156E01
:10421000020E14C0DBFF030E15C0DBFF020EDBCF66
:10422000E6FF030EDBCFE6FFF90EDBCFE6FFFA0E6B
:10423000DBCFE6FFFB0EDBCFE6FFD950FC0FE66ECF
:10424000FF0EDA20E66E72EC0BF0146E070EE15CE6
:1042500002E2E16AE552E16E1450F3CFDEFFF4CFE3
:10426000DDFFFC0EDBCFE9FFFD0EDBCFEAFFEF6ADF
:10427000DECF14F0DDCF15F014C0F3FF15C0F4FF4E
:10428000040EE15C02E2E16AE552E16EE552E5CF3F
:08429000DAFFE7CFD9FF1200AD
:084298001E0EF66E000EF76E1B
:1042A000000EF86E0F010900F550116F0900F5506E
:1042B000126F03E1116701D03DD00900F5500C6F7A
:1042C0000900F5500D6F0900F5500E6F0900090047
:1042D000F550E96E0900F550EA6E09000900090081
:1042E000F5500F6F0900F550106F09000900F6CF67
:1042F00013FFF7CF14FFF8CF15FF0CCFF6FF0DCF4C
:10430000F7FF0ECFF8FF0F010F5302E1105307E044
:104310000900F550EE6E0F07F8E21007F9D713CF3A
:10432000F6FF14CFF7FF15CFF8FF0F011107000EAE
:06433000125BBFD7120072
:0A433600D9CFE6FFE1CFD9FF929A3C
:10434000808A949A9E96FE0EDBA405D0FB0EDB506D
:10435000C76E948609D0FB0EDBCFE6FFFD0EDB5067
:10436000E552E710C76E9496FC0EDBCFE6FFFE0E1B
:10437000DB50E552E710C66EC26A0F0EC16EE55201
:10438000E7CFD9FF1200D9CFE6FFE1CFD9FFE65240
:10439000FE0EDB50C96E9EA6FED79E96C950DF6EFC
:1043A000E552E552E7CFD9FF1200C9689EA6FED7B5
:0E43B0009E96C9501200809A1200808A120058
:0243BE00D9CF55
:1043C000E6FFDACFE6FFE1CFD9FFE2CFDAFFFB0E5F
:1043D000DBCF14F0FC0EDBCF15F00001800E1514BE
:1043E0001AE1FB0EDBCFE9FFFC0EDBCFEAFFEECFDD
:1043F000F3FFEDCFF4FFEE2A000EEF22F3CFE9FF3B
:10440000F4CFEAFFFD0EDBCFEFFFEF50156AF36E3E
:1044100015C0F4FF10D0FB0EDB50FE0806E1FD0EC8
:10442000DBCFE6FF13EC23F005D0FD0EDBCFE6FF7C
:1044300003EC00F0E552E552E5CFDAFFE7CFD9FF14
:02444000120068
:0E44420006500B02F3CF02F0F4CF03F00C0291
:10445000F3500326000EF420046E06500D02F350B4
:104460000426000EF420056E06500E02F3500526B9
:1044700007500B02F3500326F4500422000E0522CD
:1044800007500C02F3500426F450052207500D0289
:10449000F350052608500B02F3500426F450052271
:1044A00008500C02F350052609500B02F350052664
:0244B0001200F8
:0E44B200FE0EE3CFE9FFFF0EE3CFEAFFF36A51
:1044C000F46AEE5203E0F34AF42AFBD71200FF0E1F
:1044D000E3CFF8FFE552FF0EE3CFF7FFE552FF0E03
:1044E000E3CFF6FFE552E66AE66AE66A0900F552AE
:1044F00009E0FD0EE32A05E1FE0EE32A02E1FF0ECC
:10450000E32AF4D7FD0EE3CF07F0FE0EE3CF08F069
:08451000FF0EE3CF09F01200D9
:08451800056A046A036A026AE5
:10452000200EE76ED8900636073608360936023672
:104530000336043605360B50025C0C5003580D5000
:1045400004580E50055809E30B50025E0C50035AF4
:104550000D50045A0E50055A062AE72EE4D71200D1
:10456000056A046A036A180EE76ED89007360836A3
:1045700009360336043605360C50035C0D500458DA
:104580000E50055807E30C50035E0D50045A0E50B0
:0A459000055A072AE72EEAD71200A9
:06459A00056A046A100E20
:1045A000E76ED89008360936043605360D50045C9F
:1045B0000E50055805E30D50045E0E50055A082AAA
:0645C000E72EF0D7120007
:0A45C600F36AF46AFF0EE124E96EC7
:1045D000FF0EE220EA6EED6607D02F0EEF6404D0E6
:0A45E0003A0EEF6001D0F32A12003A
:0645EA00800EF36E00EEEE
:1045F00000F00F0E01D81200EA6002D0EE6AFCD77C
:0A460000F350E9601200EE6AFCD7E7
:06460A001EEE00F02EEE92
:1046100000F0F86A019C4CEC21F007EC00F0D2ECC1
:064620001FF0FBD71200A1
:0A462600FF0EE350ACBA04D0AF6AF7
:10463000AB8EAC8A949CACA2FED7AD6EF36EF46ADE
:02464000120066
:0E4642003031323334353637383961626364D3
:034650006566009C
:0D465300000000000000000000000000005A
:104660000000000000000000000000010001000147
:0346700000010046
:0D46730000202020202020202020202020BA
:10468000202020202020202020202020202020202A
:0446900020202020A6
:0C4694000000000000000000000000001A
:1046A000000000000000000000000000000000000A
:0C46B000000000001020408001020408FF
:020000040030CA
:0100010002FC
:0100020003FA
:010003001EDE
:010005008179
:010006008178
:010008000FE8
:01000900C036
:01000A000FE6
:01000B00E014
:01000C000FE4
:01000D0040B2
:00000001FF
